{
	"trazabilidad/trazabilidad.sol": {
		"Produccion": {
			"abi": [
				{
					"inputs": [
						{
							"internalType": "address",
							"name": "_direccion",
							"type": "address"
						}
					],
					"stateMutability": "nonpayable",
					"type": "constructor"
				},
				{
					"anonymous": false,
					"inputs": [
						{
							"indexed": false,
							"internalType": "string",
							"name": "",
							"type": "string"
						},
						{
							"indexed": false,
							"internalType": "string",
							"name": "",
							"type": "string"
						},
						{
							"indexed": false,
							"internalType": "string",
							"name": "",
							"type": "string"
						},
						{
							"indexed": false,
							"internalType": "string",
							"name": "",
							"type": "string"
						}
					],
					"name": "NuevoResultado",
					"type": "event"
				},
				{
					"inputs": [],
					"name": "DireccionContrato",
					"outputs": [
						{
							"internalType": "address",
							"name": "",
							"type": "address"
						}
					],
					"stateMutability": "view",
					"type": "function"
				},
				{
					"inputs": [],
					"name": "DireccionEmpresa",
					"outputs": [
						{
							"internalType": "address",
							"name": "",
							"type": "address"
						}
					],
					"stateMutability": "view",
					"type": "function"
				},
				{
					"inputs": [
						{
							"internalType": "string",
							"name": "_idProductoAgricola",
							"type": "string"
						},
						{
							"internalType": "string",
							"name": "_origenSemillas",
							"type": "string"
						},
						{
							"internalType": "string",
							"name": "_entornoCrecimiento",
							"type": "string"
						},
						{
							"internalType": "string",
							"name": "_procesoSiembra",
							"type": "string"
						},
						{
							"internalType": "string",
							"name": "_codigoIPFS",
							"type": "string"
						}
					],
					"name": "ResultadosProductoAgricola",
					"outputs": [],
					"stateMutability": "nonpayable",
					"type": "function"
				},
				{
					"inputs": [
						{
							"internalType": "string",
							"name": "_idProductoAgricola",
							"type": "string"
						}
					],
					"name": "VisualizarResultados",
					"outputs": [
						{
							"internalType": "string",
							"name": "_origenSemillas",
							"type": "string"
						},
						{
							"internalType": "string",
							"name": "_entornoCrecimiento",
							"type": "string"
						},
						{
							"internalType": "string",
							"name": "_procesoSiembra",
							"type": "string"
						},
						{
							"internalType": "string",
							"name": "_codigoIPFS",
							"type": "string"
						}
					],
					"stateMutability": "view",
					"type": "function"
				}
			],
			"devdoc": {
				"kind": "dev",
				"methods": {},
				"version": 1
			},
			"evm": {
				"assembly": "    /* \"trazabilidad/trazabilidad.sol\":3859:6729  contract Produccion {... */\n  mstore(0x40, 0x80)\n    /* \"trazabilidad/trazabilidad.sol\":4006:4138  constructor (address _direccion) public {... */\n  callvalue\n  dup1\n  iszero\n  tag_1\n  jumpi\n  0x00\n  dup1\n  revert\ntag_1:\n  pop\n  mload(0x40)\n  sub(codesize, bytecodeSize)\n  dup1\n  bytecodeSize\n  dup4\n  codecopy\n  dup2\n  dup2\n  add\n  0x40\n  mstore\n  dup2\n  add\n  swap1\n  tag_2\n  swap2\n  swap1\n  tag_3\n  jump\t// in\ntag_2:\n    /* \"trazabilidad/trazabilidad.sol\":4076:4086  _direccion */\n  dup1\n    /* \"trazabilidad/trazabilidad.sol\":4057:4073  DireccionEmpresa */\n  0x00\n  dup1\n    /* \"trazabilidad/trazabilidad.sol\":4057:4086  DireccionEmpresa = _direccion */\n  0x0100\n  exp\n  dup2\n  sload\n  dup2\n  0xffffffffffffffffffffffffffffffffffffffff\n  mul\n  not\n  and\n  swap1\n  dup4\n  0xffffffffffffffffffffffffffffffffffffffff\n  and\n  mul\n  or\n  swap1\n  sstore\n  pop\n    /* \"trazabilidad/trazabilidad.sol\":4125:4129  this */\n  address\n    /* \"trazabilidad/trazabilidad.sol\":4097:4114  DireccionContrato */\n  0x01\n  0x00\n    /* \"trazabilidad/trazabilidad.sol\":4097:4130  DireccionContrato = address(this) */\n  0x0100\n  exp\n  dup2\n  sload\n  dup2\n  0xffffffffffffffffffffffffffffffffffffffff\n  mul\n  not\n  and\n  swap1\n  dup4\n  0xffffffffffffffffffffffffffffffffffffffff\n  and\n  mul\n  or\n  swap1\n  sstore\n  pop\n    /* \"trazabilidad/trazabilidad.sol\":4006:4138  constructor (address _direccion) public {... */\n  pop\n    /* \"trazabilidad/trazabilidad.sol\":3859:6729  contract Produccion {... */\n  jump(tag_6)\n    /* \"#utility.yul\":88:205   */\ntag_8:\n    /* \"#utility.yul\":197:198   */\n  0x00\n    /* \"#utility.yul\":194:195   */\n  dup1\n    /* \"#utility.yul\":187:199   */\n  revert\n    /* \"#utility.yul\":334:460   */\ntag_10:\n    /* \"#utility.yul\":371:378   */\n  0x00\n    /* \"#utility.yul\":411:453   */\n  0xffffffffffffffffffffffffffffffffffffffff\n    /* \"#utility.yul\":404:409   */\n  dup3\n    /* \"#utility.yul\":400:454   */\n  and\n    /* \"#utility.yul\":389:454   */\n  swap1\n  pop\n    /* \"#utility.yul\":334:460   */\n  swap2\n  swap1\n  pop\n  jump\t// out\n    /* \"#utility.yul\":466:562   */\ntag_11:\n    /* \"#utility.yul\":503:510   */\n  0x00\n    /* \"#utility.yul\":532:556   */\n  tag_20\n    /* \"#utility.yul\":550:555   */\n  dup3\n    /* \"#utility.yul\":532:556   */\n  tag_10\n  jump\t// in\ntag_20:\n    /* \"#utility.yul\":521:556   */\n  swap1\n  pop\n    /* \"#utility.yul\":466:562   */\n  swap2\n  swap1\n  pop\n  jump\t// out\n    /* \"#utility.yul\":568:690   */\ntag_12:\n    /* \"#utility.yul\":641:665   */\n  tag_22\n    /* \"#utility.yul\":659:664   */\n  dup2\n    /* \"#utility.yul\":641:665   */\n  tag_11\n  jump\t// in\ntag_22:\n    /* \"#utility.yul\":634:639   */\n  dup2\n    /* \"#utility.yul\":631:666   */\n  eq\n    /* \"#utility.yul\":621:684   */\n  tag_23\n  jumpi\n    /* \"#utility.yul\":680:681   */\n  0x00\n    /* \"#utility.yul\":677:678   */\n  dup1\n    /* \"#utility.yul\":670:682   */\n  revert\n    /* \"#utility.yul\":621:684   */\ntag_23:\n    /* \"#utility.yul\":568:690   */\n  pop\n  jump\t// out\n    /* \"#utility.yul\":696:839   */\ntag_13:\n    /* \"#utility.yul\":753:758   */\n  0x00\n    /* \"#utility.yul\":784:790   */\n  dup2\n    /* \"#utility.yul\":778:791   */\n  mload\n    /* \"#utility.yul\":769:791   */\n  swap1\n  pop\n    /* \"#utility.yul\":800:833   */\n  tag_25\n    /* \"#utility.yul\":827:832   */\n  dup2\n    /* \"#utility.yul\":800:833   */\n  tag_12\n  jump\t// in\ntag_25:\n    /* \"#utility.yul\":696:839   */\n  swap3\n  swap2\n  pop\n  pop\n  jump\t// out\n    /* \"#utility.yul\":845:1196   */\ntag_3:\n    /* \"#utility.yul\":915:921   */\n  0x00\n    /* \"#utility.yul\":964:966   */\n  0x20\n    /* \"#utility.yul\":952:961   */\n  dup3\n    /* \"#utility.yul\":943:950   */\n  dup5\n    /* \"#utility.yul\":939:962   */\n  sub\n    /* \"#utility.yul\":935:967   */\n  slt\n    /* \"#utility.yul\":932:1051   */\n  iszero\n  tag_27\n  jumpi\n    /* \"#utility.yul\":970:1049   */\n  tag_28\n  tag_8\n  jump\t// in\ntag_28:\n    /* \"#utility.yul\":932:1051   */\ntag_27:\n    /* \"#utility.yul\":1090:1091   */\n  0x00\n    /* \"#utility.yul\":1115:1179   */\n  tag_29\n    /* \"#utility.yul\":1171:1178   */\n  dup5\n    /* \"#utility.yul\":1162:1168   */\n  dup3\n    /* \"#utility.yul\":1151:1160   */\n  dup6\n    /* \"#utility.yul\":1147:1169   */\n  add\n    /* \"#utility.yul\":1115:1179   */\n  tag_13\n  jump\t// in\ntag_29:\n    /* \"#utility.yul\":1105:1179   */\n  swap2\n  pop\n    /* \"#utility.yul\":1061:1189   */\n  pop\n    /* \"#utility.yul\":845:1196   */\n  swap3\n  swap2\n  pop\n  pop\n  jump\t// out\n    /* \"trazabilidad/trazabilidad.sol\":3859:6729  contract Produccion {... */\ntag_6:\n  dataSize(sub_0)\n  dup1\n  dataOffset(sub_0)\n  0x00\n  codecopy\n  0x00\n  return\nstop\n\nsub_0: assembly {\n        /* \"trazabilidad/trazabilidad.sol\":3859:6729  contract Produccion {... */\n      mstore(0x40, 0x80)\n      callvalue\n      dup1\n      iszero\n      tag_1\n      jumpi\n      0x00\n      dup1\n      revert\n    tag_1:\n      pop\n      jumpi(tag_2, lt(calldatasize, 0x04))\n      shr(0xe0, calldataload(0x00))\n      dup1\n      0x5bb7ac1a\n      eq\n      tag_3\n      jumpi\n      dup1\n      0x630ea6e2\n      eq\n      tag_4\n      jumpi\n      dup1\n      0xd02cb4ed\n      eq\n      tag_5\n      jumpi\n      dup1\n      0xdad6ebeb\n      eq\n      tag_6\n      jumpi\n    tag_2:\n      0x00\n      dup1\n      revert\n        /* \"trazabilidad/trazabilidad.sol\":3923:3954  address public DireccionEmpresa */\n    tag_3:\n      tag_7\n      tag_8\n      jump\t// in\n    tag_7:\n      mload(0x40)\n      tag_9\n      swap2\n      swap1\n      tag_10\n      jump\t// in\n    tag_9:\n      mload(0x40)\n      dup1\n      swap2\n      sub\n      swap1\n      return\n        /* \"trazabilidad/trazabilidad.sol\":3961:3993  address public DireccionContrato */\n    tag_4:\n      tag_11\n      tag_12\n      jump\t// in\n    tag_11:\n      mload(0x40)\n      tag_13\n      swap2\n      swap1\n      tag_10\n      jump\t// in\n    tag_13:\n      mload(0x40)\n      dup1\n      swap2\n      sub\n      swap1\n      return\n        /* \"trazabilidad/trazabilidad.sol\":5112:5862  function ResultadosProductoAgricola(string memory _idProductoAgricola, string memory _origenSemillas, string memory _entornoCrecimiento, string memory _procesoSiembra, string memory _codigoIPFS) public UnicamenteEmpresaProduccion(msg.sender){... */\n    tag_5:\n      tag_14\n      0x04\n      dup1\n      calldatasize\n      sub\n      dup2\n      add\n      swap1\n      tag_15\n      swap2\n      swap1\n      tag_16\n      jump\t// in\n    tag_15:\n      tag_17\n      jump\t// in\n    tag_14:\n      stop\n        /* \"trazabilidad/trazabilidad.sol\":5938:6714  function VisualizarResultados(string memory _idProductoAgricola) public view returns (string memory _origenSemillas, string memory _entornoCrecimiento, string memory _procesoSiembra, string memory _codigoIPFS) {... */\n    tag_6:\n      tag_18\n      0x04\n      dup1\n      calldatasize\n      sub\n      dup2\n      add\n      swap1\n      tag_19\n      swap2\n      swap1\n      tag_20\n      jump\t// in\n    tag_19:\n      tag_21\n      jump\t// in\n    tag_18:\n      mload(0x40)\n      tag_22\n      swap5\n      swap4\n      swap3\n      swap2\n      swap1\n      tag_23\n      jump\t// in\n    tag_22:\n      mload(0x40)\n      dup1\n      swap2\n      sub\n      swap1\n      return\n        /* \"trazabilidad/trazabilidad.sol\":3923:3954  address public DireccionEmpresa */\n    tag_8:\n      0x00\n      dup1\n      sload\n      swap1\n      0x0100\n      exp\n      swap1\n      div\n      0xffffffffffffffffffffffffffffffffffffffff\n      and\n      dup2\n      jump\t// out\n        /* \"trazabilidad/trazabilidad.sol\":3961:3993  address public DireccionContrato */\n    tag_12:\n      0x01\n      0x00\n      swap1\n      sload\n      swap1\n      0x0100\n      exp\n      swap1\n      div\n      0xffffffffffffffffffffffffffffffffffffffff\n      and\n      dup2\n      jump\t// out\n        /* \"trazabilidad/trazabilidad.sol\":5112:5862  function ResultadosProductoAgricola(string memory _idProductoAgricola, string memory _origenSemillas, string memory _entornoCrecimiento, string memory _procesoSiembra, string memory _codigoIPFS) public UnicamenteEmpresaProduccion(msg.sender){... */\n    tag_17:\n        /* \"trazabilidad/trazabilidad.sol\":5342:5352  msg.sender */\n      caller\n        /* \"trazabilidad/trazabilidad.sol\":4814:4830  DireccionEmpresa */\n      0x00\n      dup1\n      sload\n      swap1\n      0x0100\n      exp\n      swap1\n      div\n      0xffffffffffffffffffffffffffffffffffffffff\n      and\n        /* \"trazabilidad/trazabilidad.sol\":4800:4830  _direccion == DireccionEmpresa */\n      0xffffffffffffffffffffffffffffffffffffffff\n      and\n        /* \"trazabilidad/trazabilidad.sol\":4800:4810  _direccion */\n      dup2\n        /* \"trazabilidad/trazabilidad.sol\":4800:4830  _direccion == DireccionEmpresa */\n      0xffffffffffffffffffffffffffffffffffffffff\n      and\n      eq\n        /* \"trazabilidad/trazabilidad.sol\":4791:4880  require (_direccion == DireccionEmpresa, \"No tiene permisos para ejecutar esta funcion.\") */\n      tag_25\n      jumpi\n      mload(0x40)\n      0x08c379a000000000000000000000000000000000000000000000000000000000\n      dup2\n      mstore\n      0x04\n      add\n      tag_26\n      swap1\n      tag_27\n      jump\t// in\n    tag_26:\n      mload(0x40)\n      dup1\n      swap2\n      sub\n      swap1\n      revert\n    tag_25:\n        /* \"trazabilidad/trazabilidad.sol\":5417:5448  bytes32 hash_idProductoAgricola */\n      0x00\n        /* \"trazabilidad/trazabilidad.sol\":5479:5498  _idProductoAgricola */\n      dup7\n        /* \"trazabilidad/trazabilidad.sol\":5462:5499  abi.encodePacked(_idProductoAgricola) */\n      add(0x20, mload(0x40))\n      tag_29\n      swap2\n      swap1\n      tag_30\n      jump\t// in\n    tag_29:\n      mload(0x40)\n      0x20\n      dup2\n      dup4\n      sub\n      sub\n      dup2\n      mstore\n      swap1\n      0x40\n      mstore\n        /* \"trazabilidad/trazabilidad.sol\":5451:5500  keccak256 (abi.encodePacked(_idProductoAgricola)) */\n      dup1\n      mload\n      swap1\n      0x20\n      add\n      keccak256\n        /* \"trazabilidad/trazabilidad.sol\":5417:5500  bytes32 hash_idProductoAgricola = keccak256 (abi.encodePacked(_idProductoAgricola)) */\n      swap1\n      pop\n        /* \"trazabilidad/trazabilidad.sol\":5638:5722  ProductoAgricola(_origenSemillas, _entornoCrecimiento, _procesoSiembra, _codigoIPFS) */\n      mload(0x40)\n      dup1\n      0x80\n      add\n      0x40\n      mstore\n      dup1\n        /* \"trazabilidad/trazabilidad.sol\":5655:5670  _origenSemillas */\n      dup8\n        /* \"trazabilidad/trazabilidad.sol\":5638:5722  ProductoAgricola(_origenSemillas, _entornoCrecimiento, _procesoSiembra, _codigoIPFS) */\n      dup2\n      mstore\n      0x20\n      add\n        /* \"trazabilidad/trazabilidad.sol\":5672:5691  _entornoCrecimiento */\n      dup7\n        /* \"trazabilidad/trazabilidad.sol\":5638:5722  ProductoAgricola(_origenSemillas, _entornoCrecimiento, _procesoSiembra, _codigoIPFS) */\n      dup2\n      mstore\n      0x20\n      add\n        /* \"trazabilidad/trazabilidad.sol\":5693:5708  _procesoSiembra */\n      dup6\n        /* \"trazabilidad/trazabilidad.sol\":5638:5722  ProductoAgricola(_origenSemillas, _entornoCrecimiento, _procesoSiembra, _codigoIPFS) */\n      dup2\n      mstore\n      0x20\n      add\n        /* \"trazabilidad/trazabilidad.sol\":5710:5721  _codigoIPFS */\n      dup5\n        /* \"trazabilidad/trazabilidad.sol\":5638:5722  ProductoAgricola(_origenSemillas, _entornoCrecimiento, _procesoSiembra, _codigoIPFS) */\n      dup2\n      mstore\n      pop\n        /* \"trazabilidad/trazabilidad.sol\":5588:5610  ResultadosProdAgricola */\n      0x02\n        /* \"trazabilidad/trazabilidad.sol\":5588:5635  ResultadosProdAgricola[hash_idProductoAgricola] */\n      0x00\n        /* \"trazabilidad/trazabilidad.sol\":5611:5634  hash_idProductoAgricola */\n      dup4\n        /* \"trazabilidad/trazabilidad.sol\":5588:5635  ResultadosProdAgricola[hash_idProductoAgricola] */\n      dup2\n      mstore\n      0x20\n      add\n      swap1\n      dup2\n      mstore\n      0x20\n      add\n      0x00\n      keccak256\n        /* \"trazabilidad/trazabilidad.sol\":5588:5722  ResultadosProdAgricola[hash_idProductoAgricola] = ProductoAgricola(_origenSemillas, _entornoCrecimiento, _procesoSiembra, _codigoIPFS) */\n      0x00\n      dup3\n      add\n      mload\n      dup2\n      0x00\n      add\n      swap1\n      dup2\n      tag_31\n      swap2\n      swap1\n      tag_32\n      jump\t// in\n    tag_31:\n      pop\n      0x20\n      dup3\n      add\n      mload\n      dup2\n      0x01\n      add\n      swap1\n      dup2\n      tag_33\n      swap2\n      swap1\n      tag_32\n      jump\t// in\n    tag_33:\n      pop\n      0x40\n      dup3\n      add\n      mload\n      dup2\n      0x02\n      add\n      swap1\n      dup2\n      tag_34\n      swap2\n      swap1\n      tag_32\n      jump\t// in\n    tag_34:\n      pop\n      0x60\n      dup3\n      add\n      mload\n      dup2\n      0x03\n      add\n      swap1\n      dup2\n      tag_35\n      swap2\n      swap1\n      tag_32\n      jump\t// in\n    tag_35:\n      pop\n      swap1\n      pop\n      pop\n        /* \"trazabilidad/trazabilidad.sol\":5772:5854  NuevoResultado(_origenSemillas, _entornoCrecimiento, _procesoSiembra, _codigoIPFS) */\n      0xcd1c47ab5e06770329a1c29576a6fecfc87b195dfa8fdb8439d0a55e5eae07c2\n        /* \"trazabilidad/trazabilidad.sol\":5787:5802  _origenSemillas */\n      dup7\n        /* \"trazabilidad/trazabilidad.sol\":5804:5823  _entornoCrecimiento */\n      dup7\n        /* \"trazabilidad/trazabilidad.sol\":5825:5840  _procesoSiembra */\n      dup7\n        /* \"trazabilidad/trazabilidad.sol\":5842:5853  _codigoIPFS */\n      dup7\n        /* \"trazabilidad/trazabilidad.sol\":5772:5854  NuevoResultado(_origenSemillas, _entornoCrecimiento, _procesoSiembra, _codigoIPFS) */\n      mload(0x40)\n      tag_36\n      swap5\n      swap4\n      swap3\n      swap2\n      swap1\n      tag_23\n      jump\t// in\n    tag_36:\n      mload(0x40)\n      dup1\n      swap2\n      sub\n      swap1\n      log1\n        /* \"trazabilidad/trazabilidad.sol\":5353:5862  {... */\n      pop\n        /* \"trazabilidad/trazabilidad.sol\":5112:5862  function ResultadosProductoAgricola(string memory _idProductoAgricola, string memory _origenSemillas, string memory _entornoCrecimiento, string memory _procesoSiembra, string memory _codigoIPFS) public UnicamenteEmpresaProduccion(msg.sender){... */\n      pop\n      pop\n      pop\n      pop\n      pop\n      pop\n      jump\t// out\n        /* \"trazabilidad/trazabilidad.sol\":5938:6714  function VisualizarResultados(string memory _idProductoAgricola) public view returns (string memory _origenSemillas, string memory _entornoCrecimiento, string memory _procesoSiembra, string memory _codigoIPFS) {... */\n    tag_21:\n        /* \"trazabilidad/trazabilidad.sol\":6024:6053  string memory _origenSemillas */\n      0x60\n        /* \"trazabilidad/trazabilidad.sol\":6055:6088  string memory _entornoCrecimiento */\n      dup1\n        /* \"trazabilidad/trazabilidad.sol\":6090:6119  string memory _procesoSiembra */\n      0x60\n        /* \"trazabilidad/trazabilidad.sol\":6121:6146  string memory _codigoIPFS */\n      dup1\n        /* \"trazabilidad/trazabilidad.sol\":6207:6238  bytes32 hash_idProductoAgricola */\n      0x00\n        /* \"trazabilidad/trazabilidad.sol\":6269:6288  _idProductoAgricola */\n      dup6\n        /* \"trazabilidad/trazabilidad.sol\":6252:6289  abi.encodePacked(_idProductoAgricola) */\n      add(0x20, mload(0x40))\n      tag_38\n      swap2\n      swap1\n      tag_30\n      jump\t// in\n    tag_38:\n      mload(0x40)\n      0x20\n      dup2\n      dup4\n      sub\n      sub\n      dup2\n      mstore\n      swap1\n      0x40\n      mstore\n        /* \"trazabilidad/trazabilidad.sol\":6241:6290  keccak256 (abi.encodePacked(_idProductoAgricola)) */\n      dup1\n      mload\n      swap1\n      0x20\n      add\n      keccak256\n        /* \"trazabilidad/trazabilidad.sol\":6207:6290  bytes32 hash_idProductoAgricola = keccak256 (abi.encodePacked(_idProductoAgricola)) */\n      swap1\n      pop\n        /* \"trazabilidad/trazabilidad.sol\":6371:6393  ResultadosProdAgricola */\n      0x02\n        /* \"trazabilidad/trazabilidad.sol\":6371:6418  ResultadosProdAgricola[hash_idProductoAgricola] */\n      0x00\n        /* \"trazabilidad/trazabilidad.sol\":6394:6417  hash_idProductoAgricola */\n      dup3\n        /* \"trazabilidad/trazabilidad.sol\":6371:6418  ResultadosProdAgricola[hash_idProductoAgricola] */\n      dup2\n      mstore\n      0x20\n      add\n      swap1\n      dup2\n      mstore\n      0x20\n      add\n      0x00\n      keccak256\n        /* \"trazabilidad/trazabilidad.sol\":6371:6433  ResultadosProdAgricola[hash_idProductoAgricola].origenSemillas */\n      0x00\n      add\n        /* \"trazabilidad/trazabilidad.sol\":6353:6433  _origenSemillas = ResultadosProdAgricola[hash_idProductoAgricola].origenSemillas */\n      dup1\n      sload\n      tag_39\n      swap1\n      tag_40\n      jump\t// in\n    tag_39:\n      dup1\n      0x1f\n      add\n      0x20\n      dup1\n      swap2\n      div\n      mul\n      0x20\n      add\n      mload(0x40)\n      swap1\n      dup2\n      add\n      0x40\n      mstore\n      dup1\n      swap3\n      swap2\n      swap1\n      dup2\n      dup2\n      mstore\n      0x20\n      add\n      dup3\n      dup1\n      sload\n      tag_41\n      swap1\n      tag_40\n      jump\t// in\n    tag_41:\n      dup1\n      iszero\n      tag_42\n      jumpi\n      dup1\n      0x1f\n      lt\n      tag_43\n      jumpi\n      0x0100\n      dup1\n      dup4\n      sload\n      div\n      mul\n      dup4\n      mstore\n      swap2\n      0x20\n      add\n      swap2\n      jump(tag_42)\n    tag_43:\n      dup3\n      add\n      swap2\n      swap1\n      0x00\n      mstore\n      keccak256(0x00, 0x20)\n      swap1\n    tag_44:\n      dup2\n      sload\n      dup2\n      mstore\n      swap1\n      0x01\n      add\n      swap1\n      0x20\n      add\n      dup1\n      dup4\n      gt\n      tag_44\n      jumpi\n      dup3\n      swap1\n      sub\n      0x1f\n      and\n      dup3\n      add\n      swap2\n    tag_42:\n      pop\n      pop\n      pop\n      pop\n      pop\n      swap5\n      pop\n        /* \"trazabilidad/trazabilidad.sol\":6466:6488  ResultadosProdAgricola */\n      0x02\n        /* \"trazabilidad/trazabilidad.sol\":6466:6513  ResultadosProdAgricola[hash_idProductoAgricola] */\n      0x00\n        /* \"trazabilidad/trazabilidad.sol\":6489:6512  hash_idProductoAgricola */\n      dup3\n        /* \"trazabilidad/trazabilidad.sol\":6466:6513  ResultadosProdAgricola[hash_idProductoAgricola] */\n      dup2\n      mstore\n      0x20\n      add\n      swap1\n      dup2\n      mstore\n      0x20\n      add\n      0x00\n      keccak256\n        /* \"trazabilidad/trazabilidad.sol\":6466:6532  ResultadosProdAgricola[hash_idProductoAgricola].entornoCrecimiento */\n      0x01\n      add\n        /* \"trazabilidad/trazabilidad.sol\":6444:6532  _entornoCrecimiento = ResultadosProdAgricola[hash_idProductoAgricola].entornoCrecimiento */\n      dup1\n      sload\n      tag_45\n      swap1\n      tag_40\n      jump\t// in\n    tag_45:\n      dup1\n      0x1f\n      add\n      0x20\n      dup1\n      swap2\n      div\n      mul\n      0x20\n      add\n      mload(0x40)\n      swap1\n      dup2\n      add\n      0x40\n      mstore\n      dup1\n      swap3\n      swap2\n      swap1\n      dup2\n      dup2\n      mstore\n      0x20\n      add\n      dup3\n      dup1\n      sload\n      tag_46\n      swap1\n      tag_40\n      jump\t// in\n    tag_46:\n      dup1\n      iszero\n      tag_47\n      jumpi\n      dup1\n      0x1f\n      lt\n      tag_48\n      jumpi\n      0x0100\n      dup1\n      dup4\n      sload\n      div\n      mul\n      dup4\n      mstore\n      swap2\n      0x20\n      add\n      swap2\n      jump(tag_47)\n    tag_48:\n      dup3\n      add\n      swap2\n      swap1\n      0x00\n      mstore\n      keccak256(0x00, 0x20)\n      swap1\n    tag_49:\n      dup2\n      sload\n      dup2\n      mstore\n      swap1\n      0x01\n      add\n      swap1\n      0x20\n      add\n      dup1\n      dup4\n      gt\n      tag_49\n      jumpi\n      dup3\n      swap1\n      sub\n      0x1f\n      and\n      dup3\n      add\n      swap2\n    tag_47:\n      pop\n      pop\n      pop\n      pop\n      pop\n      swap4\n      pop\n        /* \"trazabilidad/trazabilidad.sol\":6561:6583  ResultadosProdAgricola */\n      0x02\n        /* \"trazabilidad/trazabilidad.sol\":6561:6608  ResultadosProdAgricola[hash_idProductoAgricola] */\n      0x00\n        /* \"trazabilidad/trazabilidad.sol\":6584:6607  hash_idProductoAgricola */\n      dup3\n        /* \"trazabilidad/trazabilidad.sol\":6561:6608  ResultadosProdAgricola[hash_idProductoAgricola] */\n      dup2\n      mstore\n      0x20\n      add\n      swap1\n      dup2\n      mstore\n      0x20\n      add\n      0x00\n      keccak256\n        /* \"trazabilidad/trazabilidad.sol\":6561:6623  ResultadosProdAgricola[hash_idProductoAgricola].procesoSiembra */\n      0x02\n      add\n        /* \"trazabilidad/trazabilidad.sol\":6543:6623  _procesoSiembra = ResultadosProdAgricola[hash_idProductoAgricola].procesoSiembra */\n      dup1\n      sload\n      tag_50\n      swap1\n      tag_40\n      jump\t// in\n    tag_50:\n      dup1\n      0x1f\n      add\n      0x20\n      dup1\n      swap2\n      div\n      mul\n      0x20\n      add\n      mload(0x40)\n      swap1\n      dup2\n      add\n      0x40\n      mstore\n      dup1\n      swap3\n      swap2\n      swap1\n      dup2\n      dup2\n      mstore\n      0x20\n      add\n      dup3\n      dup1\n      sload\n      tag_51\n      swap1\n      tag_40\n      jump\t// in\n    tag_51:\n      dup1\n      iszero\n      tag_52\n      jumpi\n      dup1\n      0x1f\n      lt\n      tag_53\n      jumpi\n      0x0100\n      dup1\n      dup4\n      sload\n      div\n      mul\n      dup4\n      mstore\n      swap2\n      0x20\n      add\n      swap2\n      jump(tag_52)\n    tag_53:\n      dup3\n      add\n      swap2\n      swap1\n      0x00\n      mstore\n      keccak256(0x00, 0x20)\n      swap1\n    tag_54:\n      dup2\n      sload\n      dup2\n      mstore\n      swap1\n      0x01\n      add\n      swap1\n      0x20\n      add\n      dup1\n      dup4\n      gt\n      tag_54\n      jumpi\n      dup3\n      swap1\n      sub\n      0x1f\n      and\n      dup3\n      add\n      swap2\n    tag_52:\n      pop\n      pop\n      pop\n      pop\n      pop\n      swap3\n      pop\n        /* \"trazabilidad/trazabilidad.sol\":6648:6670  ResultadosProdAgricola */\n      0x02\n        /* \"trazabilidad/trazabilidad.sol\":6648:6695  ResultadosProdAgricola[hash_idProductoAgricola] */\n      0x00\n        /* \"trazabilidad/trazabilidad.sol\":6671:6694  hash_idProductoAgricola */\n      dup3\n        /* \"trazabilidad/trazabilidad.sol\":6648:6695  ResultadosProdAgricola[hash_idProductoAgricola] */\n      dup2\n      mstore\n      0x20\n      add\n      swap1\n      dup2\n      mstore\n      0x20\n      add\n      0x00\n      keccak256\n        /* \"trazabilidad/trazabilidad.sol\":6648:6706  ResultadosProdAgricola[hash_idProductoAgricola].CodigoIPFS */\n      0x03\n      add\n        /* \"trazabilidad/trazabilidad.sol\":6634:6706  _codigoIPFS = ResultadosProdAgricola[hash_idProductoAgricola].CodigoIPFS */\n      dup1\n      sload\n      tag_55\n      swap1\n      tag_40\n      jump\t// in\n    tag_55:\n      dup1\n      0x1f\n      add\n      0x20\n      dup1\n      swap2\n      div\n      mul\n      0x20\n      add\n      mload(0x40)\n      swap1\n      dup2\n      add\n      0x40\n      mstore\n      dup1\n      swap3\n      swap2\n      swap1\n      dup2\n      dup2\n      mstore\n      0x20\n      add\n      dup3\n      dup1\n      sload\n      tag_56\n      swap1\n      tag_40\n      jump\t// in\n    tag_56:\n      dup1\n      iszero\n      tag_57\n      jumpi\n      dup1\n      0x1f\n      lt\n      tag_58\n      jumpi\n      0x0100\n      dup1\n      dup4\n      sload\n      div\n      mul\n      dup4\n      mstore\n      swap2\n      0x20\n      add\n      swap2\n      jump(tag_57)\n    tag_58:\n      dup3\n      add\n      swap2\n      swap1\n      0x00\n      mstore\n      keccak256(0x00, 0x20)\n      swap1\n    tag_59:\n      dup2\n      sload\n      dup2\n      mstore\n      swap1\n      0x01\n      add\n      swap1\n      0x20\n      add\n      dup1\n      dup4\n      gt\n      tag_59\n      jumpi\n      dup3\n      swap1\n      sub\n      0x1f\n      and\n      dup3\n      add\n      swap2\n    tag_57:\n      pop\n      pop\n      pop\n      pop\n      pop\n      swap2\n      pop\n        /* \"trazabilidad/trazabilidad.sol\":6148:6714  {... */\n      pop\n        /* \"trazabilidad/trazabilidad.sol\":5938:6714  function VisualizarResultados(string memory _idProductoAgricola) public view returns (string memory _origenSemillas, string memory _entornoCrecimiento, string memory _procesoSiembra, string memory _codigoIPFS) {... */\n      swap2\n      swap4\n      pop\n      swap2\n      swap4\n      jump\t// out\n        /* \"#utility.yul\":7:133   */\n    tag_60:\n        /* \"#utility.yul\":44:51   */\n      0x00\n        /* \"#utility.yul\":84:126   */\n      0xffffffffffffffffffffffffffffffffffffffff\n        /* \"#utility.yul\":77:82   */\n      dup3\n        /* \"#utility.yul\":73:127   */\n      and\n        /* \"#utility.yul\":62:127   */\n      swap1\n      pop\n        /* \"#utility.yul\":7:133   */\n      swap2\n      swap1\n      pop\n      jump\t// out\n        /* \"#utility.yul\":139:235   */\n    tag_61:\n        /* \"#utility.yul\":176:183   */\n      0x00\n        /* \"#utility.yul\":205:229   */\n      tag_104\n        /* \"#utility.yul\":223:228   */\n      dup3\n        /* \"#utility.yul\":205:229   */\n      tag_60\n      jump\t// in\n    tag_104:\n        /* \"#utility.yul\":194:229   */\n      swap1\n      pop\n        /* \"#utility.yul\":139:235   */\n      swap2\n      swap1\n      pop\n      jump\t// out\n        /* \"#utility.yul\":241:359   */\n    tag_62:\n        /* \"#utility.yul\":328:352   */\n      tag_106\n        /* \"#utility.yul\":346:351   */\n      dup2\n        /* \"#utility.yul\":328:352   */\n      tag_61\n      jump\t// in\n    tag_106:\n        /* \"#utility.yul\":323:326   */\n      dup3\n        /* \"#utility.yul\":316:353   */\n      mstore\n        /* \"#utility.yul\":241:359   */\n      pop\n      pop\n      jump\t// out\n        /* \"#utility.yul\":365:587   */\n    tag_10:\n        /* \"#utility.yul\":458:462   */\n      0x00\n        /* \"#utility.yul\":496:498   */\n      0x20\n        /* \"#utility.yul\":485:494   */\n      dup3\n        /* \"#utility.yul\":481:499   */\n      add\n        /* \"#utility.yul\":473:499   */\n      swap1\n      pop\n        /* \"#utility.yul\":509:580   */\n      tag_108\n        /* \"#utility.yul\":577:578   */\n      0x00\n        /* \"#utility.yul\":566:575   */\n      dup4\n        /* \"#utility.yul\":562:579   */\n      add\n        /* \"#utility.yul\":553:559   */\n      dup5\n        /* \"#utility.yul\":509:580   */\n      tag_62\n      jump\t// in\n    tag_108:\n        /* \"#utility.yul\":365:587   */\n      swap3\n      swap2\n      pop\n      pop\n      jump\t// out\n        /* \"#utility.yul\":593:668   */\n    tag_63:\n        /* \"#utility.yul\":626:632   */\n      0x00\n        /* \"#utility.yul\":659:661   */\n      0x40\n        /* \"#utility.yul\":653:662   */\n      mload\n        /* \"#utility.yul\":643:662   */\n      swap1\n      pop\n        /* \"#utility.yul\":593:668   */\n      swap1\n      jump\t// out\n        /* \"#utility.yul\":674:791   */\n    tag_64:\n        /* \"#utility.yul\":783:784   */\n      0x00\n        /* \"#utility.yul\":780:781   */\n      dup1\n        /* \"#utility.yul\":773:785   */\n      revert\n        /* \"#utility.yul\":797:914   */\n    tag_65:\n        /* \"#utility.yul\":906:907   */\n      0x00\n        /* \"#utility.yul\":903:904   */\n      dup1\n        /* \"#utility.yul\":896:908   */\n      revert\n        /* \"#utility.yul\":920:1037   */\n    tag_66:\n        /* \"#utility.yul\":1029:1030   */\n      0x00\n        /* \"#utility.yul\":1026:1027   */\n      dup1\n        /* \"#utility.yul\":1019:1031   */\n      revert\n        /* \"#utility.yul\":1043:1160   */\n    tag_67:\n        /* \"#utility.yul\":1152:1153   */\n      0x00\n        /* \"#utility.yul\":1149:1150   */\n      dup1\n        /* \"#utility.yul\":1142:1154   */\n      revert\n        /* \"#utility.yul\":1166:1268   */\n    tag_68:\n        /* \"#utility.yul\":1207:1213   */\n      0x00\n        /* \"#utility.yul\":1258:1260   */\n      0x1f\n        /* \"#utility.yul\":1254:1261   */\n      not\n        /* \"#utility.yul\":1249:1251   */\n      0x1f\n        /* \"#utility.yul\":1242:1247   */\n      dup4\n        /* \"#utility.yul\":1238:1252   */\n      add\n        /* \"#utility.yul\":1234:1262   */\n      and\n        /* \"#utility.yul\":1224:1262   */\n      swap1\n      pop\n        /* \"#utility.yul\":1166:1268   */\n      swap2\n      swap1\n      pop\n      jump\t// out\n        /* \"#utility.yul\":1274:1454   */\n    tag_69:\n        /* \"#utility.yul\":1322:1399   */\n      0x4e487b7100000000000000000000000000000000000000000000000000000000\n        /* \"#utility.yul\":1319:1320   */\n      0x00\n        /* \"#utility.yul\":1312:1400   */\n      mstore\n        /* \"#utility.yul\":1419:1423   */\n      0x41\n        /* \"#utility.yul\":1416:1417   */\n      0x04\n        /* \"#utility.yul\":1409:1424   */\n      mstore\n        /* \"#utility.yul\":1443:1447   */\n      0x24\n        /* \"#utility.yul\":1440:1441   */\n      0x00\n        /* \"#utility.yul\":1433:1448   */\n      revert\n        /* \"#utility.yul\":1460:1741   */\n    tag_70:\n        /* \"#utility.yul\":1543:1570   */\n      tag_117\n        /* \"#utility.yul\":1565:1569   */\n      dup3\n        /* \"#utility.yul\":1543:1570   */\n      tag_68\n      jump\t// in\n    tag_117:\n        /* \"#utility.yul\":1535:1541   */\n      dup2\n        /* \"#utility.yul\":1531:1571   */\n      add\n        /* \"#utility.yul\":1673:1679   */\n      dup2\n        /* \"#utility.yul\":1661:1671   */\n      dup2\n        /* \"#utility.yul\":1658:1680   */\n      lt\n        /* \"#utility.yul\":1637:1655   */\n      0xffffffffffffffff\n        /* \"#utility.yul\":1625:1635   */\n      dup3\n        /* \"#utility.yul\":1622:1656   */\n      gt\n        /* \"#utility.yul\":1619:1681   */\n      or\n        /* \"#utility.yul\":1616:1704   */\n      iszero\n      tag_118\n      jumpi\n        /* \"#utility.yul\":1684:1702   */\n      tag_119\n      tag_69\n      jump\t// in\n    tag_119:\n        /* \"#utility.yul\":1616:1704   */\n    tag_118:\n        /* \"#utility.yul\":1724:1734   */\n      dup1\n        /* \"#utility.yul\":1720:1722   */\n      0x40\n        /* \"#utility.yul\":1713:1735   */\n      mstore\n        /* \"#utility.yul\":1503:1741   */\n      pop\n        /* \"#utility.yul\":1460:1741   */\n      pop\n      pop\n      jump\t// out\n        /* \"#utility.yul\":1747:1876   */\n    tag_71:\n        /* \"#utility.yul\":1781:1787   */\n      0x00\n        /* \"#utility.yul\":1808:1828   */\n      tag_121\n      tag_63\n      jump\t// in\n    tag_121:\n        /* \"#utility.yul\":1798:1828   */\n      swap1\n      pop\n        /* \"#utility.yul\":1837:1870   */\n      tag_122\n        /* \"#utility.yul\":1865:1869   */\n      dup3\n        /* \"#utility.yul\":1857:1863   */\n      dup3\n        /* \"#utility.yul\":1837:1870   */\n      tag_70\n      jump\t// in\n    tag_122:\n        /* \"#utility.yul\":1747:1876   */\n      swap2\n      swap1\n      pop\n      jump\t// out\n        /* \"#utility.yul\":1882:2190   */\n    tag_72:\n        /* \"#utility.yul\":1944:1948   */\n      0x00\n        /* \"#utility.yul\":2034:2052   */\n      0xffffffffffffffff\n        /* \"#utility.yul\":2026:2032   */\n      dup3\n        /* \"#utility.yul\":2023:2053   */\n      gt\n        /* \"#utility.yul\":2020:2076   */\n      iszero\n      tag_124\n      jumpi\n        /* \"#utility.yul\":2056:2074   */\n      tag_125\n      tag_69\n      jump\t// in\n    tag_125:\n        /* \"#utility.yul\":2020:2076   */\n    tag_124:\n        /* \"#utility.yul\":2094:2123   */\n      tag_126\n        /* \"#utility.yul\":2116:2122   */\n      dup3\n        /* \"#utility.yul\":2094:2123   */\n      tag_68\n      jump\t// in\n    tag_126:\n        /* \"#utility.yul\":2086:2123   */\n      swap1\n      pop\n        /* \"#utility.yul\":2178:2182   */\n      0x20\n        /* \"#utility.yul\":2172:2176   */\n      dup2\n        /* \"#utility.yul\":2168:2183   */\n      add\n        /* \"#utility.yul\":2160:2183   */\n      swap1\n      pop\n        /* \"#utility.yul\":1882:2190   */\n      swap2\n      swap1\n      pop\n      jump\t// out\n        /* \"#utility.yul\":2196:2342   */\n    tag_73:\n        /* \"#utility.yul\":2293:2299   */\n      dup3\n        /* \"#utility.yul\":2288:2291   */\n      dup2\n        /* \"#utility.yul\":2283:2286   */\n      dup4\n        /* \"#utility.yul\":2270:2300   */\n      calldatacopy\n        /* \"#utility.yul\":2334:2335   */\n      0x00\n        /* \"#utility.yul\":2325:2331   */\n      dup4\n        /* \"#utility.yul\":2320:2323   */\n      dup4\n        /* \"#utility.yul\":2316:2332   */\n      add\n        /* \"#utility.yul\":2309:2336   */\n      mstore\n        /* \"#utility.yul\":2196:2342   */\n      pop\n      pop\n      pop\n      jump\t// out\n        /* \"#utility.yul\":2348:2773   */\n    tag_74:\n        /* \"#utility.yul\":2426:2431   */\n      0x00\n        /* \"#utility.yul\":2451:2517   */\n      tag_129\n        /* \"#utility.yul\":2467:2516   */\n      tag_130\n        /* \"#utility.yul\":2509:2515   */\n      dup5\n        /* \"#utility.yul\":2467:2516   */\n      tag_72\n      jump\t// in\n    tag_130:\n        /* \"#utility.yul\":2451:2517   */\n      tag_71\n      jump\t// in\n    tag_129:\n        /* \"#utility.yul\":2442:2517   */\n      swap1\n      pop\n        /* \"#utility.yul\":2540:2546   */\n      dup3\n        /* \"#utility.yul\":2533:2538   */\n      dup2\n        /* \"#utility.yul\":2526:2547   */\n      mstore\n        /* \"#utility.yul\":2578:2582   */\n      0x20\n        /* \"#utility.yul\":2571:2576   */\n      dup2\n        /* \"#utility.yul\":2567:2583   */\n      add\n        /* \"#utility.yul\":2616:2619   */\n      dup5\n        /* \"#utility.yul\":2607:2613   */\n      dup5\n        /* \"#utility.yul\":2602:2605   */\n      dup5\n        /* \"#utility.yul\":2598:2614   */\n      add\n        /* \"#utility.yul\":2595:2620   */\n      gt\n        /* \"#utility.yul\":2592:2704   */\n      iszero\n      tag_131\n      jumpi\n        /* \"#utility.yul\":2623:2702   */\n      tag_132\n      tag_67\n      jump\t// in\n    tag_132:\n        /* \"#utility.yul\":2592:2704   */\n    tag_131:\n        /* \"#utility.yul\":2713:2767   */\n      tag_133\n        /* \"#utility.yul\":2760:2766   */\n      dup5\n        /* \"#utility.yul\":2755:2758   */\n      dup3\n        /* \"#utility.yul\":2750:2753   */\n      dup6\n        /* \"#utility.yul\":2713:2767   */\n      tag_73\n      jump\t// in\n    tag_133:\n        /* \"#utility.yul\":2432:2773   */\n      pop\n        /* \"#utility.yul\":2348:2773   */\n      swap4\n      swap3\n      pop\n      pop\n      pop\n      jump\t// out\n        /* \"#utility.yul\":2793:3133   */\n    tag_75:\n        /* \"#utility.yul\":2849:2854   */\n      0x00\n        /* \"#utility.yul\":2898:2901   */\n      dup3\n        /* \"#utility.yul\":2891:2895   */\n      0x1f\n        /* \"#utility.yul\":2883:2889   */\n      dup4\n        /* \"#utility.yul\":2879:2896   */\n      add\n        /* \"#utility.yul\":2875:2902   */\n      slt\n        /* \"#utility.yul\":2865:2987   */\n      tag_135\n      jumpi\n        /* \"#utility.yul\":2906:2985   */\n      tag_136\n      tag_66\n      jump\t// in\n    tag_136:\n        /* \"#utility.yul\":2865:2987   */\n    tag_135:\n        /* \"#utility.yul\":3023:3029   */\n      dup2\n        /* \"#utility.yul\":3010:3030   */\n      calldataload\n        /* \"#utility.yul\":3048:3127   */\n      tag_137\n        /* \"#utility.yul\":3123:3126   */\n      dup5\n        /* \"#utility.yul\":3115:3121   */\n      dup3\n        /* \"#utility.yul\":3108:3112   */\n      0x20\n        /* \"#utility.yul\":3100:3106   */\n      dup7\n        /* \"#utility.yul\":3096:3113   */\n      add\n        /* \"#utility.yul\":3048:3127   */\n      tag_74\n      jump\t// in\n    tag_137:\n        /* \"#utility.yul\":3039:3127   */\n      swap2\n      pop\n        /* \"#utility.yul\":2855:3133   */\n      pop\n        /* \"#utility.yul\":2793:3133   */\n      swap3\n      swap2\n      pop\n      pop\n      jump\t// out\n        /* \"#utility.yul\":3139:4950   */\n    tag_16:\n        /* \"#utility.yul\":3284:3290   */\n      0x00\n        /* \"#utility.yul\":3292:3298   */\n      dup1\n        /* \"#utility.yul\":3300:3306   */\n      0x00\n        /* \"#utility.yul\":3308:3314   */\n      dup1\n        /* \"#utility.yul\":3316:3322   */\n      0x00\n        /* \"#utility.yul\":3365:3368   */\n      0xa0\n        /* \"#utility.yul\":3353:3362   */\n      dup7\n        /* \"#utility.yul\":3344:3351   */\n      dup9\n        /* \"#utility.yul\":3340:3363   */\n      sub\n        /* \"#utility.yul\":3336:3369   */\n      slt\n        /* \"#utility.yul\":3333:3453   */\n      iszero\n      tag_139\n      jumpi\n        /* \"#utility.yul\":3372:3451   */\n      tag_140\n      tag_64\n      jump\t// in\n    tag_140:\n        /* \"#utility.yul\":3333:3453   */\n    tag_139:\n        /* \"#utility.yul\":3520:3521   */\n      0x00\n        /* \"#utility.yul\":3509:3518   */\n      dup7\n        /* \"#utility.yul\":3505:3522   */\n      add\n        /* \"#utility.yul\":3492:3523   */\n      calldataload\n        /* \"#utility.yul\":3550:3568   */\n      0xffffffffffffffff\n        /* \"#utility.yul\":3542:3548   */\n      dup2\n        /* \"#utility.yul\":3539:3569   */\n      gt\n        /* \"#utility.yul\":3536:3653   */\n      iszero\n      tag_141\n      jumpi\n        /* \"#utility.yul\":3572:3651   */\n      tag_142\n      tag_65\n      jump\t// in\n    tag_142:\n        /* \"#utility.yul\":3536:3653   */\n    tag_141:\n        /* \"#utility.yul\":3677:3740   */\n      tag_143\n        /* \"#utility.yul\":3732:3739   */\n      dup9\n        /* \"#utility.yul\":3723:3729   */\n      dup3\n        /* \"#utility.yul\":3712:3721   */\n      dup10\n        /* \"#utility.yul\":3708:3730   */\n      add\n        /* \"#utility.yul\":3677:3740   */\n      tag_75\n      jump\t// in\n    tag_143:\n        /* \"#utility.yul\":3667:3740   */\n      swap6\n      pop\n        /* \"#utility.yul\":3463:3750   */\n      pop\n        /* \"#utility.yul\":3817:3819   */\n      0x20\n        /* \"#utility.yul\":3806:3815   */\n      dup7\n        /* \"#utility.yul\":3802:3820   */\n      add\n        /* \"#utility.yul\":3789:3821   */\n      calldataload\n        /* \"#utility.yul\":3848:3866   */\n      0xffffffffffffffff\n        /* \"#utility.yul\":3840:3846   */\n      dup2\n        /* \"#utility.yul\":3837:3867   */\n      gt\n        /* \"#utility.yul\":3834:3951   */\n      iszero\n      tag_144\n      jumpi\n        /* \"#utility.yul\":3870:3949   */\n      tag_145\n      tag_65\n      jump\t// in\n    tag_145:\n        /* \"#utility.yul\":3834:3951   */\n    tag_144:\n        /* \"#utility.yul\":3975:4038   */\n      tag_146\n        /* \"#utility.yul\":4030:4037   */\n      dup9\n        /* \"#utility.yul\":4021:4027   */\n      dup3\n        /* \"#utility.yul\":4010:4019   */\n      dup10\n        /* \"#utility.yul\":4006:4028   */\n      add\n        /* \"#utility.yul\":3975:4038   */\n      tag_75\n      jump\t// in\n    tag_146:\n        /* \"#utility.yul\":3965:4038   */\n      swap5\n      pop\n        /* \"#utility.yul\":3760:4048   */\n      pop\n        /* \"#utility.yul\":4115:4117   */\n      0x40\n        /* \"#utility.yul\":4104:4113   */\n      dup7\n        /* \"#utility.yul\":4100:4118   */\n      add\n        /* \"#utility.yul\":4087:4119   */\n      calldataload\n        /* \"#utility.yul\":4146:4164   */\n      0xffffffffffffffff\n        /* \"#utility.yul\":4138:4144   */\n      dup2\n        /* \"#utility.yul\":4135:4165   */\n      gt\n        /* \"#utility.yul\":4132:4249   */\n      iszero\n      tag_147\n      jumpi\n        /* \"#utility.yul\":4168:4247   */\n      tag_148\n      tag_65\n      jump\t// in\n    tag_148:\n        /* \"#utility.yul\":4132:4249   */\n    tag_147:\n        /* \"#utility.yul\":4273:4336   */\n      tag_149\n        /* \"#utility.yul\":4328:4335   */\n      dup9\n        /* \"#utility.yul\":4319:4325   */\n      dup3\n        /* \"#utility.yul\":4308:4317   */\n      dup10\n        /* \"#utility.yul\":4304:4326   */\n      add\n        /* \"#utility.yul\":4273:4336   */\n      tag_75\n      jump\t// in\n    tag_149:\n        /* \"#utility.yul\":4263:4336   */\n      swap4\n      pop\n        /* \"#utility.yul\":4058:4346   */\n      pop\n        /* \"#utility.yul\":4413:4415   */\n      0x60\n        /* \"#utility.yul\":4402:4411   */\n      dup7\n        /* \"#utility.yul\":4398:4416   */\n      add\n        /* \"#utility.yul\":4385:4417   */\n      calldataload\n        /* \"#utility.yul\":4444:4462   */\n      0xffffffffffffffff\n        /* \"#utility.yul\":4436:4442   */\n      dup2\n        /* \"#utility.yul\":4433:4463   */\n      gt\n        /* \"#utility.yul\":4430:4547   */\n      iszero\n      tag_150\n      jumpi\n        /* \"#utility.yul\":4466:4545   */\n      tag_151\n      tag_65\n      jump\t// in\n    tag_151:\n        /* \"#utility.yul\":4430:4547   */\n    tag_150:\n        /* \"#utility.yul\":4571:4634   */\n      tag_152\n        /* \"#utility.yul\":4626:4633   */\n      dup9\n        /* \"#utility.yul\":4617:4623   */\n      dup3\n        /* \"#utility.yul\":4606:4615   */\n      dup10\n        /* \"#utility.yul\":4602:4624   */\n      add\n        /* \"#utility.yul\":4571:4634   */\n      tag_75\n      jump\t// in\n    tag_152:\n        /* \"#utility.yul\":4561:4634   */\n      swap3\n      pop\n        /* \"#utility.yul\":4356:4644   */\n      pop\n        /* \"#utility.yul\":4711:4714   */\n      0x80\n        /* \"#utility.yul\":4700:4709   */\n      dup7\n        /* \"#utility.yul\":4696:4715   */\n      add\n        /* \"#utility.yul\":4683:4716   */\n      calldataload\n        /* \"#utility.yul\":4743:4761   */\n      0xffffffffffffffff\n        /* \"#utility.yul\":4735:4741   */\n      dup2\n        /* \"#utility.yul\":4732:4762   */\n      gt\n        /* \"#utility.yul\":4729:4846   */\n      iszero\n      tag_153\n      jumpi\n        /* \"#utility.yul\":4765:4844   */\n      tag_154\n      tag_65\n      jump\t// in\n    tag_154:\n        /* \"#utility.yul\":4729:4846   */\n    tag_153:\n        /* \"#utility.yul\":4870:4933   */\n      tag_155\n        /* \"#utility.yul\":4925:4932   */\n      dup9\n        /* \"#utility.yul\":4916:4922   */\n      dup3\n        /* \"#utility.yul\":4905:4914   */\n      dup10\n        /* \"#utility.yul\":4901:4923   */\n      add\n        /* \"#utility.yul\":4870:4933   */\n      tag_75\n      jump\t// in\n    tag_155:\n        /* \"#utility.yul\":4860:4933   */\n      swap2\n      pop\n        /* \"#utility.yul\":4654:4943   */\n      pop\n        /* \"#utility.yul\":3139:4950   */\n      swap3\n      swap6\n      pop\n      swap3\n      swap6\n      swap1\n      swap4\n      pop\n      jump\t// out\n        /* \"#utility.yul\":4956:5465   */\n    tag_20:\n        /* \"#utility.yul\":5025:5031   */\n      0x00\n        /* \"#utility.yul\":5074:5076   */\n      0x20\n        /* \"#utility.yul\":5062:5071   */\n      dup3\n        /* \"#utility.yul\":5053:5060   */\n      dup5\n        /* \"#utility.yul\":5049:5072   */\n      sub\n        /* \"#utility.yul\":5045:5077   */\n      slt\n        /* \"#utility.yul\":5042:5161   */\n      iszero\n      tag_157\n      jumpi\n        /* \"#utility.yul\":5080:5159   */\n      tag_158\n      tag_64\n      jump\t// in\n    tag_158:\n        /* \"#utility.yul\":5042:5161   */\n    tag_157:\n        /* \"#utility.yul\":5228:5229   */\n      0x00\n        /* \"#utility.yul\":5217:5226   */\n      dup3\n        /* \"#utility.yul\":5213:5230   */\n      add\n        /* \"#utility.yul\":5200:5231   */\n      calldataload\n        /* \"#utility.yul\":5258:5276   */\n      0xffffffffffffffff\n        /* \"#utility.yul\":5250:5256   */\n      dup2\n        /* \"#utility.yul\":5247:5277   */\n      gt\n        /* \"#utility.yul\":5244:5361   */\n      iszero\n      tag_159\n      jumpi\n        /* \"#utility.yul\":5280:5359   */\n      tag_160\n      tag_65\n      jump\t// in\n    tag_160:\n        /* \"#utility.yul\":5244:5361   */\n    tag_159:\n        /* \"#utility.yul\":5385:5448   */\n      tag_161\n        /* \"#utility.yul\":5440:5447   */\n      dup5\n        /* \"#utility.yul\":5431:5437   */\n      dup3\n        /* \"#utility.yul\":5420:5429   */\n      dup6\n        /* \"#utility.yul\":5416:5438   */\n      add\n        /* \"#utility.yul\":5385:5448   */\n      tag_75\n      jump\t// in\n    tag_161:\n        /* \"#utility.yul\":5375:5448   */\n      swap2\n      pop\n        /* \"#utility.yul\":5171:5458   */\n      pop\n        /* \"#utility.yul\":4956:5465   */\n      swap3\n      swap2\n      pop\n      pop\n      jump\t// out\n        /* \"#utility.yul\":5471:5570   */\n    tag_76:\n        /* \"#utility.yul\":5523:5529   */\n      0x00\n        /* \"#utility.yul\":5557:5562   */\n      dup2\n        /* \"#utility.yul\":5551:5563   */\n      mload\n        /* \"#utility.yul\":5541:5563   */\n      swap1\n      pop\n        /* \"#utility.yul\":5471:5570   */\n      swap2\n      swap1\n      pop\n      jump\t// out\n        /* \"#utility.yul\":5576:5745   */\n    tag_77:\n        /* \"#utility.yul\":5660:5671   */\n      0x00\n        /* \"#utility.yul\":5694:5700   */\n      dup3\n        /* \"#utility.yul\":5689:5692   */\n      dup3\n        /* \"#utility.yul\":5682:5701   */\n      mstore\n        /* \"#utility.yul\":5734:5738   */\n      0x20\n        /* \"#utility.yul\":5729:5732   */\n      dup3\n        /* \"#utility.yul\":5725:5739   */\n      add\n        /* \"#utility.yul\":5710:5739   */\n      swap1\n      pop\n        /* \"#utility.yul\":5576:5745   */\n      swap3\n      swap2\n      pop\n      pop\n      jump\t// out\n        /* \"#utility.yul\":5751:5997   */\n    tag_78:\n        /* \"#utility.yul\":5832:5833   */\n      0x00\n        /* \"#utility.yul\":5842:5955   */\n    tag_165:\n        /* \"#utility.yul\":5856:5862   */\n      dup4\n        /* \"#utility.yul\":5853:5854   */\n      dup2\n        /* \"#utility.yul\":5850:5863   */\n      lt\n        /* \"#utility.yul\":5842:5955   */\n      iszero\n      tag_167\n      jumpi\n        /* \"#utility.yul\":5941:5942   */\n      dup1\n        /* \"#utility.yul\":5936:5939   */\n      dup3\n        /* \"#utility.yul\":5932:5943   */\n      add\n        /* \"#utility.yul\":5926:5944   */\n      mload\n        /* \"#utility.yul\":5922:5923   */\n      dup2\n        /* \"#utility.yul\":5917:5920   */\n      dup5\n        /* \"#utility.yul\":5913:5924   */\n      add\n        /* \"#utility.yul\":5906:5945   */\n      mstore\n        /* \"#utility.yul\":5878:5880   */\n      0x20\n        /* \"#utility.yul\":5875:5876   */\n      dup2\n        /* \"#utility.yul\":5871:5881   */\n      add\n        /* \"#utility.yul\":5866:5881   */\n      swap1\n      pop\n        /* \"#utility.yul\":5842:5955   */\n      jump(tag_165)\n    tag_167:\n        /* \"#utility.yul\":5989:5990   */\n      0x00\n        /* \"#utility.yul\":5980:5986   */\n      dup5\n        /* \"#utility.yul\":5975:5978   */\n      dup5\n        /* \"#utility.yul\":5971:5987   */\n      add\n        /* \"#utility.yul\":5964:5991   */\n      mstore\n        /* \"#utility.yul\":5813:5997   */\n      pop\n        /* \"#utility.yul\":5751:5997   */\n      pop\n      pop\n      pop\n      jump\t// out\n        /* \"#utility.yul\":6003:6380   */\n    tag_79:\n        /* \"#utility.yul\":6091:6094   */\n      0x00\n        /* \"#utility.yul\":6119:6158   */\n      tag_169\n        /* \"#utility.yul\":6152:6157   */\n      dup3\n        /* \"#utility.yul\":6119:6158   */\n      tag_76\n      jump\t// in\n    tag_169:\n        /* \"#utility.yul\":6174:6245   */\n      tag_170\n        /* \"#utility.yul\":6238:6244   */\n      dup2\n        /* \"#utility.yul\":6233:6236   */\n      dup6\n        /* \"#utility.yul\":6174:6245   */\n      tag_77\n      jump\t// in\n    tag_170:\n        /* \"#utility.yul\":6167:6245   */\n      swap4\n      pop\n        /* \"#utility.yul\":6254:6319   */\n      tag_171\n        /* \"#utility.yul\":6312:6318   */\n      dup2\n        /* \"#utility.yul\":6307:6310   */\n      dup6\n        /* \"#utility.yul\":6300:6304   */\n      0x20\n        /* \"#utility.yul\":6293:6298   */\n      dup7\n        /* \"#utility.yul\":6289:6305   */\n      add\n        /* \"#utility.yul\":6254:6319   */\n      tag_78\n      jump\t// in\n    tag_171:\n        /* \"#utility.yul\":6344:6373   */\n      tag_172\n        /* \"#utility.yul\":6366:6372   */\n      dup2\n        /* \"#utility.yul\":6344:6373   */\n      tag_68\n      jump\t// in\n    tag_172:\n        /* \"#utility.yul\":6339:6342   */\n      dup5\n        /* \"#utility.yul\":6335:6374   */\n      add\n        /* \"#utility.yul\":6328:6374   */\n      swap2\n      pop\n        /* \"#utility.yul\":6095:6380   */\n      pop\n        /* \"#utility.yul\":6003:6380   */\n      swap3\n      swap2\n      pop\n      pop\n      jump\t// out\n        /* \"#utility.yul\":6386:7303   */\n    tag_23:\n        /* \"#utility.yul\":6643:6647   */\n      0x00\n        /* \"#utility.yul\":6681:6684   */\n      0x80\n        /* \"#utility.yul\":6670:6679   */\n      dup3\n        /* \"#utility.yul\":6666:6685   */\n      add\n        /* \"#utility.yul\":6658:6685   */\n      swap1\n      pop\n        /* \"#utility.yul\":6731:6740   */\n      dup2\n        /* \"#utility.yul\":6725:6729   */\n      dup2\n        /* \"#utility.yul\":6721:6741   */\n      sub\n        /* \"#utility.yul\":6717:6718   */\n      0x00\n        /* \"#utility.yul\":6706:6715   */\n      dup4\n        /* \"#utility.yul\":6702:6719   */\n      add\n        /* \"#utility.yul\":6695:6742   */\n      mstore\n        /* \"#utility.yul\":6759:6837   */\n      tag_174\n        /* \"#utility.yul\":6832:6836   */\n      dup2\n        /* \"#utility.yul\":6823:6829   */\n      dup8\n        /* \"#utility.yul\":6759:6837   */\n      tag_79\n      jump\t// in\n    tag_174:\n        /* \"#utility.yul\":6751:6837   */\n      swap1\n      pop\n        /* \"#utility.yul\":6884:6893   */\n      dup2\n        /* \"#utility.yul\":6878:6882   */\n      dup2\n        /* \"#utility.yul\":6874:6894   */\n      sub\n        /* \"#utility.yul\":6869:6871   */\n      0x20\n        /* \"#utility.yul\":6858:6867   */\n      dup4\n        /* \"#utility.yul\":6854:6872   */\n      add\n        /* \"#utility.yul\":6847:6895   */\n      mstore\n        /* \"#utility.yul\":6912:6990   */\n      tag_175\n        /* \"#utility.yul\":6985:6989   */\n      dup2\n        /* \"#utility.yul\":6976:6982   */\n      dup7\n        /* \"#utility.yul\":6912:6990   */\n      tag_79\n      jump\t// in\n    tag_175:\n        /* \"#utility.yul\":6904:6990   */\n      swap1\n      pop\n        /* \"#utility.yul\":7037:7046   */\n      dup2\n        /* \"#utility.yul\":7031:7035   */\n      dup2\n        /* \"#utility.yul\":7027:7047   */\n      sub\n        /* \"#utility.yul\":7022:7024   */\n      0x40\n        /* \"#utility.yul\":7011:7020   */\n      dup4\n        /* \"#utility.yul\":7007:7025   */\n      add\n        /* \"#utility.yul\":7000:7048   */\n      mstore\n        /* \"#utility.yul\":7065:7143   */\n      tag_176\n        /* \"#utility.yul\":7138:7142   */\n      dup2\n        /* \"#utility.yul\":7129:7135   */\n      dup6\n        /* \"#utility.yul\":7065:7143   */\n      tag_79\n      jump\t// in\n    tag_176:\n        /* \"#utility.yul\":7057:7143   */\n      swap1\n      pop\n        /* \"#utility.yul\":7190:7199   */\n      dup2\n        /* \"#utility.yul\":7184:7188   */\n      dup2\n        /* \"#utility.yul\":7180:7200   */\n      sub\n        /* \"#utility.yul\":7175:7177   */\n      0x60\n        /* \"#utility.yul\":7164:7173   */\n      dup4\n        /* \"#utility.yul\":7160:7178   */\n      add\n        /* \"#utility.yul\":7153:7201   */\n      mstore\n        /* \"#utility.yul\":7218:7296   */\n      tag_177\n        /* \"#utility.yul\":7291:7295   */\n      dup2\n        /* \"#utility.yul\":7282:7288   */\n      dup5\n        /* \"#utility.yul\":7218:7296   */\n      tag_79\n      jump\t// in\n    tag_177:\n        /* \"#utility.yul\":7210:7296   */\n      swap1\n      pop\n        /* \"#utility.yul\":6386:7303   */\n      swap6\n      swap5\n      pop\n      pop\n      pop\n      pop\n      pop\n      jump\t// out\n        /* \"#utility.yul\":7309:7541   */\n    tag_80:\n        /* \"#utility.yul\":7449:7483   */\n      0x4e6f207469656e65207065726d69736f73207061726120656a65637574617220\n        /* \"#utility.yul\":7445:7446   */\n      0x00\n        /* \"#utility.yul\":7437:7443   */\n      dup3\n        /* \"#utility.yul\":7433:7447   */\n      add\n        /* \"#utility.yul\":7426:7484   */\n      mstore\n        /* \"#utility.yul\":7518:7533   */\n      0x657374612066756e63696f6e2e00000000000000000000000000000000000000\n        /* \"#utility.yul\":7513:7515   */\n      0x20\n        /* \"#utility.yul\":7505:7511   */\n      dup3\n        /* \"#utility.yul\":7501:7516   */\n      add\n        /* \"#utility.yul\":7494:7534   */\n      mstore\n        /* \"#utility.yul\":7309:7541   */\n      pop\n      jump\t// out\n        /* \"#utility.yul\":7547:7913   */\n    tag_81:\n        /* \"#utility.yul\":7689:7692   */\n      0x00\n        /* \"#utility.yul\":7710:7777   */\n      tag_180\n        /* \"#utility.yul\":7774:7776   */\n      0x2d\n        /* \"#utility.yul\":7769:7772   */\n      dup4\n        /* \"#utility.yul\":7710:7777   */\n      tag_77\n      jump\t// in\n    tag_180:\n        /* \"#utility.yul\":7703:7777   */\n      swap2\n      pop\n        /* \"#utility.yul\":7786:7879   */\n      tag_181\n        /* \"#utility.yul\":7875:7878   */\n      dup3\n        /* \"#utility.yul\":7786:7879   */\n      tag_80\n      jump\t// in\n    tag_181:\n        /* \"#utility.yul\":7904:7906   */\n      0x40\n        /* \"#utility.yul\":7899:7902   */\n      dup3\n        /* \"#utility.yul\":7895:7907   */\n      add\n        /* \"#utility.yul\":7888:7907   */\n      swap1\n      pop\n        /* \"#utility.yul\":7547:7913   */\n      swap2\n      swap1\n      pop\n      jump\t// out\n        /* \"#utility.yul\":7919:8338   */\n    tag_27:\n        /* \"#utility.yul\":8085:8089   */\n      0x00\n        /* \"#utility.yul\":8123:8125   */\n      0x20\n        /* \"#utility.yul\":8112:8121   */\n      dup3\n        /* \"#utility.yul\":8108:8126   */\n      add\n        /* \"#utility.yul\":8100:8126   */\n      swap1\n      pop\n        /* \"#utility.yul\":8172:8181   */\n      dup2\n        /* \"#utility.yul\":8166:8170   */\n      dup2\n        /* \"#utility.yul\":8162:8182   */\n      sub\n        /* \"#utility.yul\":8158:8159   */\n      0x00\n        /* \"#utility.yul\":8147:8156   */\n      dup4\n        /* \"#utility.yul\":8143:8160   */\n      add\n        /* \"#utility.yul\":8136:8183   */\n      mstore\n        /* \"#utility.yul\":8200:8331   */\n      tag_183\n        /* \"#utility.yul\":8326:8330   */\n      dup2\n        /* \"#utility.yul\":8200:8331   */\n      tag_81\n      jump\t// in\n    tag_183:\n        /* \"#utility.yul\":8192:8331   */\n      swap1\n      pop\n        /* \"#utility.yul\":7919:8338   */\n      swap2\n      swap1\n      pop\n      jump\t// out\n        /* \"#utility.yul\":8344:8492   */\n    tag_82:\n        /* \"#utility.yul\":8446:8457   */\n      0x00\n        /* \"#utility.yul\":8483:8486   */\n      dup2\n        /* \"#utility.yul\":8468:8486   */\n      swap1\n      pop\n        /* \"#utility.yul\":8344:8492   */\n      swap3\n      swap2\n      pop\n      pop\n      jump\t// out\n        /* \"#utility.yul\":8498:8888   */\n    tag_83:\n        /* \"#utility.yul\":8604:8607   */\n      0x00\n        /* \"#utility.yul\":8632:8671   */\n      tag_186\n        /* \"#utility.yul\":8665:8670   */\n      dup3\n        /* \"#utility.yul\":8632:8671   */\n      tag_76\n      jump\t// in\n    tag_186:\n        /* \"#utility.yul\":8687:8776   */\n      tag_187\n        /* \"#utility.yul\":8769:8775   */\n      dup2\n        /* \"#utility.yul\":8764:8767   */\n      dup6\n        /* \"#utility.yul\":8687:8776   */\n      tag_82\n      jump\t// in\n    tag_187:\n        /* \"#utility.yul\":8680:8776   */\n      swap4\n      pop\n        /* \"#utility.yul\":8785:8850   */\n      tag_188\n        /* \"#utility.yul\":8843:8849   */\n      dup2\n        /* \"#utility.yul\":8838:8841   */\n      dup6\n        /* \"#utility.yul\":8831:8835   */\n      0x20\n        /* \"#utility.yul\":8824:8829   */\n      dup7\n        /* \"#utility.yul\":8820:8836   */\n      add\n        /* \"#utility.yul\":8785:8850   */\n      tag_78\n      jump\t// in\n    tag_188:\n        /* \"#utility.yul\":8875:8881   */\n      dup1\n        /* \"#utility.yul\":8870:8873   */\n      dup5\n        /* \"#utility.yul\":8866:8882   */\n      add\n        /* \"#utility.yul\":8859:8882   */\n      swap2\n      pop\n        /* \"#utility.yul\":8608:8888   */\n      pop\n        /* \"#utility.yul\":8498:8888   */\n      swap3\n      swap2\n      pop\n      pop\n      jump\t// out\n        /* \"#utility.yul\":8894:9169   */\n    tag_30:\n        /* \"#utility.yul\":9026:9029   */\n      0x00\n        /* \"#utility.yul\":9048:9143   */\n      tag_190\n        /* \"#utility.yul\":9139:9142   */\n      dup3\n        /* \"#utility.yul\":9130:9136   */\n      dup5\n        /* \"#utility.yul\":9048:9143   */\n      tag_83\n      jump\t// in\n    tag_190:\n        /* \"#utility.yul\":9041:9143   */\n      swap2\n      pop\n        /* \"#utility.yul\":9160:9163   */\n      dup2\n        /* \"#utility.yul\":9153:9163   */\n      swap1\n      pop\n        /* \"#utility.yul\":8894:9169   */\n      swap3\n      swap2\n      pop\n      pop\n      jump\t// out\n        /* \"#utility.yul\":9175:9355   */\n    tag_84:\n        /* \"#utility.yul\":9223:9300   */\n      0x4e487b7100000000000000000000000000000000000000000000000000000000\n        /* \"#utility.yul\":9220:9221   */\n      0x00\n        /* \"#utility.yul\":9213:9301   */\n      mstore\n        /* \"#utility.yul\":9320:9324   */\n      0x22\n        /* \"#utility.yul\":9317:9318   */\n      0x04\n        /* \"#utility.yul\":9310:9325   */\n      mstore\n        /* \"#utility.yul\":9344:9348   */\n      0x24\n        /* \"#utility.yul\":9341:9342   */\n      0x00\n        /* \"#utility.yul\":9334:9349   */\n      revert\n        /* \"#utility.yul\":9361:9681   */\n    tag_40:\n        /* \"#utility.yul\":9405:9411   */\n      0x00\n        /* \"#utility.yul\":9442:9443   */\n      0x02\n        /* \"#utility.yul\":9436:9440   */\n      dup3\n        /* \"#utility.yul\":9432:9444   */\n      div\n        /* \"#utility.yul\":9422:9444   */\n      swap1\n      pop\n        /* \"#utility.yul\":9489:9490   */\n      0x01\n        /* \"#utility.yul\":9483:9487   */\n      dup3\n        /* \"#utility.yul\":9479:9491   */\n      and\n        /* \"#utility.yul\":9510:9528   */\n      dup1\n        /* \"#utility.yul\":9500:9581   */\n      tag_193\n      jumpi\n        /* \"#utility.yul\":9566:9570   */\n      0x7f\n        /* \"#utility.yul\":9558:9564   */\n      dup3\n        /* \"#utility.yul\":9554:9571   */\n      and\n        /* \"#utility.yul\":9544:9571   */\n      swap2\n      pop\n        /* \"#utility.yul\":9500:9581   */\n    tag_193:\n        /* \"#utility.yul\":9628:9630   */\n      0x20\n        /* \"#utility.yul\":9620:9626   */\n      dup3\n        /* \"#utility.yul\":9617:9631   */\n      lt\n        /* \"#utility.yul\":9597:9615   */\n      dup2\n        /* \"#utility.yul\":9594:9632   */\n      sub\n        /* \"#utility.yul\":9591:9675   */\n      tag_194\n      jumpi\n        /* \"#utility.yul\":9647:9665   */\n      tag_195\n      tag_84\n      jump\t// in\n    tag_195:\n        /* \"#utility.yul\":9591:9675   */\n    tag_194:\n        /* \"#utility.yul\":9412:9681   */\n      pop\n        /* \"#utility.yul\":9361:9681   */\n      swap2\n      swap1\n      pop\n      jump\t// out\n        /* \"#utility.yul\":9687:9828   */\n    tag_85:\n        /* \"#utility.yul\":9736:9740   */\n      0x00\n        /* \"#utility.yul\":9759:9762   */\n      dup2\n        /* \"#utility.yul\":9751:9762   */\n      swap1\n      pop\n        /* \"#utility.yul\":9782:9785   */\n      dup2\n        /* \"#utility.yul\":9779:9780   */\n      0x00\n        /* \"#utility.yul\":9772:9786   */\n      mstore\n        /* \"#utility.yul\":9816:9820   */\n      0x20\n        /* \"#utility.yul\":9813:9814   */\n      0x00\n        /* \"#utility.yul\":9803:9821   */\n      keccak256\n        /* \"#utility.yul\":9795:9821   */\n      swap1\n      pop\n        /* \"#utility.yul\":9687:9828   */\n      swap2\n      swap1\n      pop\n      jump\t// out\n        /* \"#utility.yul\":9834:9927   */\n    tag_86:\n        /* \"#utility.yul\":9871:9877   */\n      0x00\n        /* \"#utility.yul\":9918:9920   */\n      0x20\n        /* \"#utility.yul\":9913:9915   */\n      0x1f\n        /* \"#utility.yul\":9906:9911   */\n      dup4\n        /* \"#utility.yul\":9902:9916   */\n      add\n        /* \"#utility.yul\":9898:9921   */\n      div\n        /* \"#utility.yul\":9888:9921   */\n      swap1\n      pop\n        /* \"#utility.yul\":9834:9927   */\n      swap2\n      swap1\n      pop\n      jump\t// out\n        /* \"#utility.yul\":9933:10040   */\n    tag_87:\n        /* \"#utility.yul\":9977:9985   */\n      0x00\n        /* \"#utility.yul\":10027:10032   */\n      dup3\n        /* \"#utility.yul\":10021:10025   */\n      dup3\n        /* \"#utility.yul\":10017:10033   */\n      shl\n        /* \"#utility.yul\":9996:10033   */\n      swap1\n      pop\n        /* \"#utility.yul\":9933:10040   */\n      swap3\n      swap2\n      pop\n      pop\n      jump\t// out\n        /* \"#utility.yul\":10046:10439   */\n    tag_88:\n        /* \"#utility.yul\":10115:10121   */\n      0x00\n        /* \"#utility.yul\":10165:10166   */\n      0x08\n        /* \"#utility.yul\":10153:10163   */\n      dup4\n        /* \"#utility.yul\":10149:10167   */\n      mul\n        /* \"#utility.yul\":10188:10285   */\n      tag_200\n        /* \"#utility.yul\":10218:10284   */\n      0xffffffffffffffffffffffffffffffffffffffffffffffffffffffffffffffff\n        /* \"#utility.yul\":10207:10216   */\n      dup3\n        /* \"#utility.yul\":10188:10285   */\n      tag_87\n      jump\t// in\n    tag_200:\n        /* \"#utility.yul\":10306:10345   */\n      tag_201\n        /* \"#utility.yul\":10336:10344   */\n      dup7\n        /* \"#utility.yul\":10325:10334   */\n      dup4\n        /* \"#utility.yul\":10306:10345   */\n      tag_87\n      jump\t// in\n    tag_201:\n        /* \"#utility.yul\":10294:10345   */\n      swap6\n      pop\n        /* \"#utility.yul\":10378:10382   */\n      dup1\n        /* \"#utility.yul\":10374:10383   */\n      not\n        /* \"#utility.yul\":10367:10372   */\n      dup5\n        /* \"#utility.yul\":10363:10384   */\n      and\n        /* \"#utility.yul\":10354:10384   */\n      swap4\n      pop\n        /* \"#utility.yul\":10427:10431   */\n      dup1\n        /* \"#utility.yul\":10417:10425   */\n      dup7\n        /* \"#utility.yul\":10413:10432   */\n      and\n        /* \"#utility.yul\":10406:10411   */\n      dup5\n        /* \"#utility.yul\":10403:10433   */\n      or\n        /* \"#utility.yul\":10393:10433   */\n      swap3\n      pop\n        /* \"#utility.yul\":10122:10439   */\n      pop\n      pop\n        /* \"#utility.yul\":10046:10439   */\n      swap4\n      swap3\n      pop\n      pop\n      pop\n      jump\t// out\n        /* \"#utility.yul\":10445:10522   */\n    tag_89:\n        /* \"#utility.yul\":10482:10489   */\n      0x00\n        /* \"#utility.yul\":10511:10516   */\n      dup2\n        /* \"#utility.yul\":10500:10516   */\n      swap1\n      pop\n        /* \"#utility.yul\":10445:10522   */\n      swap2\n      swap1\n      pop\n      jump\t// out\n        /* \"#utility.yul\":10528:10588   */\n    tag_90:\n        /* \"#utility.yul\":10556:10559   */\n      0x00\n        /* \"#utility.yul\":10577:10582   */\n      dup2\n        /* \"#utility.yul\":10570:10582   */\n      swap1\n      pop\n        /* \"#utility.yul\":10528:10588   */\n      swap2\n      swap1\n      pop\n      jump\t// out\n        /* \"#utility.yul\":10594:10736   */\n    tag_91:\n        /* \"#utility.yul\":10644:10653   */\n      0x00\n        /* \"#utility.yul\":10677:10730   */\n      tag_205\n        /* \"#utility.yul\":10695:10729   */\n      tag_206\n        /* \"#utility.yul\":10704:10728   */\n      tag_207\n        /* \"#utility.yul\":10722:10727   */\n      dup5\n        /* \"#utility.yul\":10704:10728   */\n      tag_89\n      jump\t// in\n    tag_207:\n        /* \"#utility.yul\":10695:10729   */\n      tag_90\n      jump\t// in\n    tag_206:\n        /* \"#utility.yul\":10677:10730   */\n      tag_89\n      jump\t// in\n    tag_205:\n        /* \"#utility.yul\":10664:10730   */\n      swap1\n      pop\n        /* \"#utility.yul\":10594:10736   */\n      swap2\n      swap1\n      pop\n      jump\t// out\n        /* \"#utility.yul\":10742:10817   */\n    tag_92:\n        /* \"#utility.yul\":10785:10788   */\n      0x00\n        /* \"#utility.yul\":10806:10811   */\n      dup2\n        /* \"#utility.yul\":10799:10811   */\n      swap1\n      pop\n        /* \"#utility.yul\":10742:10817   */\n      swap2\n      swap1\n      pop\n      jump\t// out\n        /* \"#utility.yul\":10823:11092   */\n    tag_93:\n        /* \"#utility.yul\":10933:10972   */\n      tag_210\n        /* \"#utility.yul\":10964:10971   */\n      dup4\n        /* \"#utility.yul\":10933:10972   */\n      tag_91\n      jump\t// in\n    tag_210:\n        /* \"#utility.yul\":10994:11085   */\n      tag_211\n        /* \"#utility.yul\":11043:11084   */\n      tag_212\n        /* \"#utility.yul\":11067:11083   */\n      dup3\n        /* \"#utility.yul\":11043:11084   */\n      tag_92\n      jump\t// in\n    tag_212:\n        /* \"#utility.yul\":11035:11041   */\n      dup5\n        /* \"#utility.yul\":11028:11032   */\n      dup5\n        /* \"#utility.yul\":11022:11033   */\n      sload\n        /* \"#utility.yul\":10994:11085   */\n      tag_88\n      jump\t// in\n    tag_211:\n        /* \"#utility.yul\":10988:10992   */\n      dup3\n        /* \"#utility.yul\":10981:11086   */\n      sstore\n        /* \"#utility.yul\":10899:11092   */\n      pop\n        /* \"#utility.yul\":10823:11092   */\n      pop\n      pop\n      pop\n      jump\t// out\n        /* \"#utility.yul\":11098:11171   */\n    tag_94:\n        /* \"#utility.yul\":11143:11146   */\n      0x00\n        /* \"#utility.yul\":11098:11171   */\n      swap1\n      jump\t// out\n        /* \"#utility.yul\":11177:11366   */\n    tag_95:\n        /* \"#utility.yul\":11254:11286   */\n      tag_215\n      tag_94\n      jump\t// in\n    tag_215:\n        /* \"#utility.yul\":11295:11360   */\n      tag_216\n        /* \"#utility.yul\":11353:11359   */\n      dup2\n        /* \"#utility.yul\":11345:11351   */\n      dup5\n        /* \"#utility.yul\":11339:11343   */\n      dup5\n        /* \"#utility.yul\":11295:11360   */\n      tag_93\n      jump\t// in\n    tag_216:\n        /* \"#utility.yul\":11230:11366   */\n      pop\n        /* \"#utility.yul\":11177:11366   */\n      pop\n      pop\n      jump\t// out\n        /* \"#utility.yul\":11372:11558   */\n    tag_96:\n        /* \"#utility.yul\":11432:11552   */\n    tag_218:\n        /* \"#utility.yul\":11449:11452   */\n      dup2\n        /* \"#utility.yul\":11442:11447   */\n      dup2\n        /* \"#utility.yul\":11439:11453   */\n      lt\n        /* \"#utility.yul\":11432:11552   */\n      iszero\n      tag_220\n      jumpi\n        /* \"#utility.yul\":11503:11542   */\n      tag_221\n        /* \"#utility.yul\":11540:11541   */\n      0x00\n        /* \"#utility.yul\":11533:11538   */\n      dup3\n        /* \"#utility.yul\":11503:11542   */\n      tag_95\n      jump\t// in\n    tag_221:\n        /* \"#utility.yul\":11476:11477   */\n      0x01\n        /* \"#utility.yul\":11469:11474   */\n      dup2\n        /* \"#utility.yul\":11465:11478   */\n      add\n        /* \"#utility.yul\":11456:11478   */\n      swap1\n      pop\n        /* \"#utility.yul\":11432:11552   */\n      jump(tag_218)\n    tag_220:\n        /* \"#utility.yul\":11372:11558   */\n      pop\n      pop\n      jump\t// out\n        /* \"#utility.yul\":11564:12107   */\n    tag_97:\n        /* \"#utility.yul\":11665:11667   */\n      0x1f\n        /* \"#utility.yul\":11660:11663   */\n      dup3\n        /* \"#utility.yul\":11657:11668   */\n      gt\n        /* \"#utility.yul\":11654:12100   */\n      iszero\n      tag_223\n      jumpi\n        /* \"#utility.yul\":11699:11737   */\n      tag_224\n        /* \"#utility.yul\":11731:11736   */\n      dup2\n        /* \"#utility.yul\":11699:11737   */\n      tag_85\n      jump\t// in\n    tag_224:\n        /* \"#utility.yul\":11783:11812   */\n      tag_225\n        /* \"#utility.yul\":11801:11811   */\n      dup5\n        /* \"#utility.yul\":11783:11812   */\n      tag_86\n      jump\t// in\n    tag_225:\n        /* \"#utility.yul\":11773:11781   */\n      dup2\n        /* \"#utility.yul\":11769:11813   */\n      add\n        /* \"#utility.yul\":11966:11968   */\n      0x20\n        /* \"#utility.yul\":11954:11964   */\n      dup6\n        /* \"#utility.yul\":11951:11969   */\n      lt\n        /* \"#utility.yul\":11948:11997   */\n      iszero\n      tag_226\n      jumpi\n        /* \"#utility.yul\":11987:11995   */\n      dup2\n        /* \"#utility.yul\":11972:11995   */\n      swap1\n      pop\n        /* \"#utility.yul\":11948:11997   */\n    tag_226:\n        /* \"#utility.yul\":12010:12090   */\n      tag_227\n        /* \"#utility.yul\":12066:12088   */\n      tag_228\n        /* \"#utility.yul\":12084:12087   */\n      dup6\n        /* \"#utility.yul\":12066:12088   */\n      tag_86\n      jump\t// in\n    tag_228:\n        /* \"#utility.yul\":12056:12064   */\n      dup4\n        /* \"#utility.yul\":12052:12089   */\n      add\n        /* \"#utility.yul\":12039:12050   */\n      dup3\n        /* \"#utility.yul\":12010:12090   */\n      tag_96\n      jump\t// in\n    tag_227:\n        /* \"#utility.yul\":11669:12100   */\n      pop\n      pop\n        /* \"#utility.yul\":11654:12100   */\n    tag_223:\n        /* \"#utility.yul\":11564:12107   */\n      pop\n      pop\n      pop\n      jump\t// out\n        /* \"#utility.yul\":12113:12230   */\n    tag_98:\n        /* \"#utility.yul\":12167:12175   */\n      0x00\n        /* \"#utility.yul\":12217:12222   */\n      dup3\n        /* \"#utility.yul\":12211:12215   */\n      dup3\n        /* \"#utility.yul\":12207:12223   */\n      shr\n        /* \"#utility.yul\":12186:12223   */\n      swap1\n      pop\n        /* \"#utility.yul\":12113:12230   */\n      swap3\n      swap2\n      pop\n      pop\n      jump\t// out\n        /* \"#utility.yul\":12236:12405   */\n    tag_99:\n        /* \"#utility.yul\":12280:12286   */\n      0x00\n        /* \"#utility.yul\":12313:12364   */\n      tag_231\n        /* \"#utility.yul\":12361:12362   */\n      0x00\n        /* \"#utility.yul\":12357:12363   */\n      not\n        /* \"#utility.yul\":12349:12354   */\n      dup5\n        /* \"#utility.yul\":12346:12347   */\n      0x08\n        /* \"#utility.yul\":12342:12355   */\n      mul\n        /* \"#utility.yul\":12313:12364   */\n      tag_98\n      jump\t// in\n    tag_231:\n        /* \"#utility.yul\":12309:12365   */\n      not\n        /* \"#utility.yul\":12394:12398   */\n      dup1\n        /* \"#utility.yul\":12388:12392   */\n      dup4\n        /* \"#utility.yul\":12384:12399   */\n      and\n        /* \"#utility.yul\":12374:12399   */\n      swap2\n      pop\n        /* \"#utility.yul\":12287:12405   */\n      pop\n        /* \"#utility.yul\":12236:12405   */\n      swap3\n      swap2\n      pop\n      pop\n      jump\t// out\n        /* \"#utility.yul\":12410:12705   */\n    tag_100:\n        /* \"#utility.yul\":12486:12490   */\n      0x00\n        /* \"#utility.yul\":12632:12661   */\n      tag_233\n        /* \"#utility.yul\":12657:12660   */\n      dup4\n        /* \"#utility.yul\":12651:12655   */\n      dup4\n        /* \"#utility.yul\":12632:12661   */\n      tag_99\n      jump\t// in\n    tag_233:\n        /* \"#utility.yul\":12624:12661   */\n      swap2\n      pop\n        /* \"#utility.yul\":12694:12697   */\n      dup3\n        /* \"#utility.yul\":12691:12692   */\n      0x02\n        /* \"#utility.yul\":12687:12698   */\n      mul\n        /* \"#utility.yul\":12681:12685   */\n      dup3\n        /* \"#utility.yul\":12678:12699   */\n      or\n        /* \"#utility.yul\":12670:12699   */\n      swap1\n      pop\n        /* \"#utility.yul\":12410:12705   */\n      swap3\n      swap2\n      pop\n      pop\n      jump\t// out\n        /* \"#utility.yul\":12710:14105   */\n    tag_32:\n        /* \"#utility.yul\":12827:12864   */\n      tag_235\n        /* \"#utility.yul\":12860:12863   */\n      dup3\n        /* \"#utility.yul\":12827:12864   */\n      tag_76\n      jump\t// in\n    tag_235:\n        /* \"#utility.yul\":12929:12947   */\n      0xffffffffffffffff\n        /* \"#utility.yul\":12921:12927   */\n      dup2\n        /* \"#utility.yul\":12918:12948   */\n      gt\n        /* \"#utility.yul\":12915:12971   */\n      iszero\n      tag_236\n      jumpi\n        /* \"#utility.yul\":12951:12969   */\n      tag_237\n      tag_69\n      jump\t// in\n    tag_237:\n        /* \"#utility.yul\":12915:12971   */\n    tag_236:\n        /* \"#utility.yul\":12995:13033   */\n      tag_238\n        /* \"#utility.yul\":13027:13031   */\n      dup3\n        /* \"#utility.yul\":13021:13032   */\n      sload\n        /* \"#utility.yul\":12995:13033   */\n      tag_40\n      jump\t// in\n    tag_238:\n        /* \"#utility.yul\":13080:13147   */\n      tag_239\n        /* \"#utility.yul\":13140:13146   */\n      dup3\n        /* \"#utility.yul\":13132:13138   */\n      dup3\n        /* \"#utility.yul\":13126:13130   */\n      dup6\n        /* \"#utility.yul\":13080:13147   */\n      tag_97\n      jump\t// in\n    tag_239:\n        /* \"#utility.yul\":13174:13175   */\n      0x00\n        /* \"#utility.yul\":13198:13202   */\n      0x20\n        /* \"#utility.yul\":13185:13202   */\n      swap1\n      pop\n        /* \"#utility.yul\":13230:13232   */\n      0x1f\n        /* \"#utility.yul\":13222:13228   */\n      dup4\n        /* \"#utility.yul\":13219:13233   */\n      gt\n        /* \"#utility.yul\":13247:13248   */\n      0x01\n        /* \"#utility.yul\":13242:13860   */\n      dup2\n      eq\n      tag_241\n      jumpi\n        /* \"#utility.yul\":13904:13905   */\n      0x00\n        /* \"#utility.yul\":13921:13927   */\n      dup5\n        /* \"#utility.yul\":13918:13995   */\n      iszero\n      tag_242\n      jumpi\n        /* \"#utility.yul\":13970:13979   */\n      dup3\n        /* \"#utility.yul\":13965:13968   */\n      dup8\n        /* \"#utility.yul\":13961:13980   */\n      add\n        /* \"#utility.yul\":13955:13981   */\n      mload\n        /* \"#utility.yul\":13946:13981   */\n      swap1\n      pop\n        /* \"#utility.yul\":13918:13995   */\n    tag_242:\n        /* \"#utility.yul\":14021:14088   */\n      tag_243\n        /* \"#utility.yul\":14081:14087   */\n      dup6\n        /* \"#utility.yul\":14074:14079   */\n      dup3\n        /* \"#utility.yul\":14021:14088   */\n      tag_100\n      jump\t// in\n    tag_243:\n        /* \"#utility.yul\":14015:14019   */\n      dup7\n        /* \"#utility.yul\":14008:14089   */\n      sstore\n        /* \"#utility.yul\":13877:14099   */\n      pop\n        /* \"#utility.yul\":13212:14099   */\n      jump(tag_240)\n        /* \"#utility.yul\":13242:13860   */\n    tag_241:\n        /* \"#utility.yul\":13294:13298   */\n      0x1f\n        /* \"#utility.yul\":13290:13299   */\n      not\n        /* \"#utility.yul\":13282:13288   */\n      dup5\n        /* \"#utility.yul\":13278:13300   */\n      and\n        /* \"#utility.yul\":13328:13365   */\n      tag_244\n        /* \"#utility.yul\":13360:13364   */\n      dup7\n        /* \"#utility.yul\":13328:13365   */\n      tag_85\n      jump\t// in\n    tag_244:\n        /* \"#utility.yul\":13387:13388   */\n      0x00\n        /* \"#utility.yul\":13401:13609   */\n    tag_245:\n        /* \"#utility.yul\":13415:13422   */\n      dup3\n        /* \"#utility.yul\":13412:13413   */\n      dup2\n        /* \"#utility.yul\":13409:13423   */\n      lt\n        /* \"#utility.yul\":13401:13609   */\n      iszero\n      tag_247\n      jumpi\n        /* \"#utility.yul\":13494:13503   */\n      dup5\n        /* \"#utility.yul\":13489:13492   */\n      dup10\n        /* \"#utility.yul\":13485:13504   */\n      add\n        /* \"#utility.yul\":13479:13505   */\n      mload\n        /* \"#utility.yul\":13471:13477   */\n      dup3\n        /* \"#utility.yul\":13464:13506   */\n      sstore\n        /* \"#utility.yul\":13545:13546   */\n      0x01\n        /* \"#utility.yul\":13537:13543   */\n      dup3\n        /* \"#utility.yul\":13533:13547   */\n      add\n        /* \"#utility.yul\":13523:13547   */\n      swap2\n      pop\n        /* \"#utility.yul\":13592:13594   */\n      0x20\n        /* \"#utility.yul\":13581:13590   */\n      dup6\n        /* \"#utility.yul\":13577:13595   */\n      add\n        /* \"#utility.yul\":13564:13595   */\n      swap5\n      pop\n        /* \"#utility.yul\":13438:13442   */\n      0x20\n        /* \"#utility.yul\":13435:13436   */\n      dup2\n        /* \"#utility.yul\":13431:13443   */\n      add\n        /* \"#utility.yul\":13426:13443   */\n      swap1\n      pop\n        /* \"#utility.yul\":13401:13609   */\n      jump(tag_245)\n    tag_247:\n        /* \"#utility.yul\":13637:13643   */\n      dup7\n        /* \"#utility.yul\":13628:13635   */\n      dup4\n        /* \"#utility.yul\":13625:13644   */\n      lt\n        /* \"#utility.yul\":13622:13801   */\n      iszero\n      tag_248\n      jumpi\n        /* \"#utility.yul\":13695:13704   */\n      dup5\n        /* \"#utility.yul\":13690:13693   */\n      dup10\n        /* \"#utility.yul\":13686:13705   */\n      add\n        /* \"#utility.yul\":13680:13706   */\n      mload\n        /* \"#utility.yul\":13738:13786   */\n      tag_249\n        /* \"#utility.yul\":13780:13784   */\n      0x1f\n        /* \"#utility.yul\":13772:13778   */\n      dup10\n        /* \"#utility.yul\":13768:13785   */\n      and\n        /* \"#utility.yul\":13757:13766   */\n      dup3\n        /* \"#utility.yul\":13738:13786   */\n      tag_99\n      jump\t// in\n    tag_249:\n        /* \"#utility.yul\":13730:13736   */\n      dup4\n        /* \"#utility.yul\":13723:13787   */\n      sstore\n        /* \"#utility.yul\":13645:13801   */\n      pop\n        /* \"#utility.yul\":13622:13801   */\n    tag_248:\n        /* \"#utility.yul\":13847:13848   */\n      0x01\n        /* \"#utility.yul\":13843:13844   */\n      0x02\n        /* \"#utility.yul\":13835:13841   */\n      dup9\n        /* \"#utility.yul\":13831:13845   */\n      mul\n        /* \"#utility.yul\":13827:13849   */\n      add\n        /* \"#utility.yul\":13821:13825   */\n      dup9\n        /* \"#utility.yul\":13814:13850   */\n      sstore\n        /* \"#utility.yul\":13249:13860   */\n      pop\n      pop\n      pop\n        /* \"#utility.yul\":13212:14099   */\n    tag_240:\n      pop\n        /* \"#utility.yul\":12802:14105   */\n      pop\n      pop\n      pop\n        /* \"#utility.yul\":12710:14105   */\n      pop\n      pop\n      jump\t// out\n\n    auxdata: 0xa26469706673582212207265ae357a07550de30b727f087f2d471387bfc3676535d89fefd1265889422d64736f6c63430008140033\n}\n",
				"bytecode": {
					"linkReferences": {},
					"object": "608060405234801561000f575f80fd5b50604051610e4f380380610e4f83398181016040528101906100319190610114565b805f806101000a81548173ffffffffffffffffffffffffffffffffffffffff021916908373ffffffffffffffffffffffffffffffffffffffff1602179055503060015f6101000a81548173ffffffffffffffffffffffffffffffffffffffff021916908373ffffffffffffffffffffffffffffffffffffffff1602179055505061013f565b5f80fd5b5f73ffffffffffffffffffffffffffffffffffffffff82169050919050565b5f6100e3826100ba565b9050919050565b6100f3816100d9565b81146100fd575f80fd5b50565b5f8151905061010e816100ea565b92915050565b5f60208284031215610129576101286100b6565b5b5f61013684828501610100565b91505092915050565b610d038061014c5f395ff3fe608060405234801561000f575f80fd5b506004361061004a575f3560e01c80635bb7ac1a1461004e578063630ea6e21461006c578063d02cb4ed1461008a578063dad6ebeb146100a6575b5f80fd5b6100566100d9565b6040516100639190610594565b60405180910390f35b6100746100fc565b6040516100819190610594565b60405180910390f35b6100a4600480360381019061009f91906106fa565b610121565b005b6100c060048036038101906100bb91906107fd565b6102aa565b6040516100d094939291906108be565b60405180910390f35b5f8054906101000a900473ffffffffffffffffffffffffffffffffffffffff1681565b60015f9054906101000a900473ffffffffffffffffffffffffffffffffffffffff1681565b335f8054906101000a900473ffffffffffffffffffffffffffffffffffffffff1673ffffffffffffffffffffffffffffffffffffffff168173ffffffffffffffffffffffffffffffffffffffff16146101af576040517f08c379a00000000000000000000000000000000000000000000000000000000081526004016101a69061098d565b60405180910390fd5b5f866040516020016101c191906109e5565b60405160208183030381529060405280519060200120905060405180608001604052808781526020018681526020018581526020018481525060025f8381526020019081526020015f205f820151815f01908161021e9190610bfe565b5060208201518160010190816102349190610bfe565b50604082015181600201908161024a9190610bfe565b5060608201518160030190816102609190610bfe565b509050507fcd1c47ab5e06770329a1c29576a6fecfc87b195dfa8fdb8439d0a55e5eae07c28686868660405161029994939291906108be565b60405180910390a150505050505050565b6060806060805f856040516020016102c291906109e5565b60405160208183030381529060405280519060200120905060025f8281526020019081526020015f205f0180546102f890610a28565b80601f016020809104026020016040519081016040528092919081815260200182805461032490610a28565b801561036f5780601f106103465761010080835404028352916020019161036f565b820191905f5260205f20905b81548152906001019060200180831161035257829003601f168201915b5050505050945060025f8281526020019081526020015f20600101805461039590610a28565b80601f01602080910402602001604051908101604052809291908181526020018280546103c190610a28565b801561040c5780601f106103e35761010080835404028352916020019161040c565b820191905f5260205f20905b8154815290600101906020018083116103ef57829003601f168201915b5050505050935060025f8281526020019081526020015f20600201805461043290610a28565b80601f016020809104026020016040519081016040528092919081815260200182805461045e90610a28565b80156104a95780601f10610480576101008083540402835291602001916104a9565b820191905f5260205f20905b81548152906001019060200180831161048c57829003601f168201915b5050505050925060025f8281526020019081526020015f2060030180546104cf90610a28565b80601f01602080910402602001604051908101604052809291908181526020018280546104fb90610a28565b80156105465780601f1061051d57610100808354040283529160200191610546565b820191905f5260205f20905b81548152906001019060200180831161052957829003601f168201915b50505050509150509193509193565b5f73ffffffffffffffffffffffffffffffffffffffff82169050919050565b5f61057e82610555565b9050919050565b61058e81610574565b82525050565b5f6020820190506105a75f830184610585565b92915050565b5f604051905090565b5f80fd5b5f80fd5b5f80fd5b5f80fd5b5f601f19601f8301169050919050565b7f4e487b71000000000000000000000000000000000000000000000000000000005f52604160045260245ffd5b61060c826105c6565b810181811067ffffffffffffffff8211171561062b5761062a6105d6565b5b80604052505050565b5f61063d6105ad565b90506106498282610603565b919050565b5f67ffffffffffffffff821115610668576106676105d6565b5b610671826105c6565b9050602081019050919050565b828183375f83830152505050565b5f61069e6106998461064e565b610634565b9050828152602081018484840111156106ba576106b96105c2565b5b6106c584828561067e565b509392505050565b5f82601f8301126106e1576106e06105be565b5b81356106f184826020860161068c565b91505092915050565b5f805f805f60a08688031215610713576107126105b6565b5b5f86013567ffffffffffffffff8111156107305761072f6105ba565b5b61073c888289016106cd565b955050602086013567ffffffffffffffff81111561075d5761075c6105ba565b5b610769888289016106cd565b945050604086013567ffffffffffffffff81111561078a576107896105ba565b5b610796888289016106cd565b935050606086013567ffffffffffffffff8111156107b7576107b66105ba565b5b6107c3888289016106cd565b925050608086013567ffffffffffffffff8111156107e4576107e36105ba565b5b6107f0888289016106cd565b9150509295509295909350565b5f60208284031215610812576108116105b6565b5b5f82013567ffffffffffffffff81111561082f5761082e6105ba565b5b61083b848285016106cd565b91505092915050565b5f81519050919050565b5f82825260208201905092915050565b5f5b8381101561087b578082015181840152602081019050610860565b5f8484015250505050565b5f61089082610844565b61089a818561084e565b93506108aa81856020860161085e565b6108b3816105c6565b840191505092915050565b5f6080820190508181035f8301526108d68187610886565b905081810360208301526108ea8186610886565b905081810360408301526108fe8185610886565b905081810360608301526109128184610886565b905095945050505050565b7f4e6f207469656e65207065726d69736f73207061726120656a656375746172205f8201527f657374612066756e63696f6e2e00000000000000000000000000000000000000602082015250565b5f610977602d8361084e565b91506109828261091d565b604082019050919050565b5f6020820190508181035f8301526109a48161096b565b9050919050565b5f81905092915050565b5f6109bf82610844565b6109c981856109ab565b93506109d981856020860161085e565b80840191505092915050565b5f6109f082846109b5565b915081905092915050565b7f4e487b71000000000000000000000000000000000000000000000000000000005f52602260045260245ffd5b5f6002820490506001821680610a3f57607f821691505b602082108103610a5257610a516109fb565b5b50919050565b5f819050815f5260205f209050919050565b5f6020601f8301049050919050565b5f82821b905092915050565b5f60088302610ab47fffffffffffffffffffffffffffffffffffffffffffffffffffffffffffffffff82610a79565b610abe8683610a79565b95508019841693508086168417925050509392505050565b5f819050919050565b5f819050919050565b5f610b02610afd610af884610ad6565b610adf565b610ad6565b9050919050565b5f819050919050565b610b1b83610ae8565b610b2f610b2782610b09565b848454610a85565b825550505050565b5f90565b610b43610b37565b610b4e818484610b12565b505050565b5b81811015610b7157610b665f82610b3b565b600181019050610b54565b5050565b601f821115610bb657610b8781610a58565b610b9084610a6a565b81016020851015610b9f578190505b610bb3610bab85610a6a565b830182610b53565b50505b505050565b5f82821c905092915050565b5f610bd65f1984600802610bbb565b1980831691505092915050565b5f610bee8383610bc7565b9150826002028217905092915050565b610c0782610844565b67ffffffffffffffff811115610c2057610c1f6105d6565b5b610c2a8254610a28565b610c35828285610b75565b5f60209050601f831160018114610c66575f8415610c54578287015190505b610c5e8582610be3565b865550610cc5565b601f198416610c7486610a58565b5f5b82811015610c9b57848901518255600182019150602085019450602081019050610c76565b86831015610cb85784890151610cb4601f891682610bc7565b8355505b6001600288020188555050505b50505050505056fea26469706673582212207265ae357a07550de30b727f087f2d471387bfc3676535d89fefd1265889422d64736f6c63430008140033",
					"opcodes": "PUSH1 0x80 PUSH1 0x40 MSTORE CALLVALUE DUP1 ISZERO PUSH2 0xF JUMPI PUSH0 DUP1 REVERT JUMPDEST POP PUSH1 0x40 MLOAD PUSH2 0xE4F CODESIZE SUB DUP1 PUSH2 0xE4F DUP4 CODECOPY DUP2 DUP2 ADD PUSH1 0x40 MSTORE DUP2 ADD SWAP1 PUSH2 0x31 SWAP2 SWAP1 PUSH2 0x114 JUMP JUMPDEST DUP1 PUSH0 DUP1 PUSH2 0x100 EXP DUP2 SLOAD DUP2 PUSH20 0xFFFFFFFFFFFFFFFFFFFFFFFFFFFFFFFFFFFFFFFF MUL NOT AND SWAP1 DUP4 PUSH20 0xFFFFFFFFFFFFFFFFFFFFFFFFFFFFFFFFFFFFFFFF AND MUL OR SWAP1 SSTORE POP ADDRESS PUSH1 0x1 PUSH0 PUSH2 0x100 EXP DUP2 SLOAD DUP2 PUSH20 0xFFFFFFFFFFFFFFFFFFFFFFFFFFFFFFFFFFFFFFFF MUL NOT AND SWAP1 DUP4 PUSH20 0xFFFFFFFFFFFFFFFFFFFFFFFFFFFFFFFFFFFFFFFF AND MUL OR SWAP1 SSTORE POP POP PUSH2 0x13F JUMP JUMPDEST PUSH0 DUP1 REVERT JUMPDEST PUSH0 PUSH20 0xFFFFFFFFFFFFFFFFFFFFFFFFFFFFFFFFFFFFFFFF DUP3 AND SWAP1 POP SWAP2 SWAP1 POP JUMP JUMPDEST PUSH0 PUSH2 0xE3 DUP3 PUSH2 0xBA JUMP JUMPDEST SWAP1 POP SWAP2 SWAP1 POP JUMP JUMPDEST PUSH2 0xF3 DUP2 PUSH2 0xD9 JUMP JUMPDEST DUP2 EQ PUSH2 0xFD JUMPI PUSH0 DUP1 REVERT JUMPDEST POP JUMP JUMPDEST PUSH0 DUP2 MLOAD SWAP1 POP PUSH2 0x10E DUP2 PUSH2 0xEA JUMP JUMPDEST SWAP3 SWAP2 POP POP JUMP JUMPDEST PUSH0 PUSH1 0x20 DUP3 DUP5 SUB SLT ISZERO PUSH2 0x129 JUMPI PUSH2 0x128 PUSH2 0xB6 JUMP JUMPDEST JUMPDEST PUSH0 PUSH2 0x136 DUP5 DUP3 DUP6 ADD PUSH2 0x100 JUMP JUMPDEST SWAP2 POP POP SWAP3 SWAP2 POP POP JUMP JUMPDEST PUSH2 0xD03 DUP1 PUSH2 0x14C PUSH0 CODECOPY PUSH0 RETURN INVALID PUSH1 0x80 PUSH1 0x40 MSTORE CALLVALUE DUP1 ISZERO PUSH2 0xF JUMPI PUSH0 DUP1 REVERT JUMPDEST POP PUSH1 0x4 CALLDATASIZE LT PUSH2 0x4A JUMPI PUSH0 CALLDATALOAD PUSH1 0xE0 SHR DUP1 PUSH4 0x5BB7AC1A EQ PUSH2 0x4E JUMPI DUP1 PUSH4 0x630EA6E2 EQ PUSH2 0x6C JUMPI DUP1 PUSH4 0xD02CB4ED EQ PUSH2 0x8A JUMPI DUP1 PUSH4 0xDAD6EBEB EQ PUSH2 0xA6 JUMPI JUMPDEST PUSH0 DUP1 REVERT JUMPDEST PUSH2 0x56 PUSH2 0xD9 JUMP JUMPDEST PUSH1 0x40 MLOAD PUSH2 0x63 SWAP2 SWAP1 PUSH2 0x594 JUMP JUMPDEST PUSH1 0x40 MLOAD DUP1 SWAP2 SUB SWAP1 RETURN JUMPDEST PUSH2 0x74 PUSH2 0xFC JUMP JUMPDEST PUSH1 0x40 MLOAD PUSH2 0x81 SWAP2 SWAP1 PUSH2 0x594 JUMP JUMPDEST PUSH1 0x40 MLOAD DUP1 SWAP2 SUB SWAP1 RETURN JUMPDEST PUSH2 0xA4 PUSH1 0x4 DUP1 CALLDATASIZE SUB DUP2 ADD SWAP1 PUSH2 0x9F SWAP2 SWAP1 PUSH2 0x6FA JUMP JUMPDEST PUSH2 0x121 JUMP JUMPDEST STOP JUMPDEST PUSH2 0xC0 PUSH1 0x4 DUP1 CALLDATASIZE SUB DUP2 ADD SWAP1 PUSH2 0xBB SWAP2 SWAP1 PUSH2 0x7FD JUMP JUMPDEST PUSH2 0x2AA JUMP JUMPDEST PUSH1 0x40 MLOAD PUSH2 0xD0 SWAP5 SWAP4 SWAP3 SWAP2 SWAP1 PUSH2 0x8BE JUMP JUMPDEST PUSH1 0x40 MLOAD DUP1 SWAP2 SUB SWAP1 RETURN JUMPDEST PUSH0 DUP1 SLOAD SWAP1 PUSH2 0x100 EXP SWAP1 DIV PUSH20 0xFFFFFFFFFFFFFFFFFFFFFFFFFFFFFFFFFFFFFFFF AND DUP2 JUMP JUMPDEST PUSH1 0x1 PUSH0 SWAP1 SLOAD SWAP1 PUSH2 0x100 EXP SWAP1 DIV PUSH20 0xFFFFFFFFFFFFFFFFFFFFFFFFFFFFFFFFFFFFFFFF AND DUP2 JUMP JUMPDEST CALLER PUSH0 DUP1 SLOAD SWAP1 PUSH2 0x100 EXP SWAP1 DIV PUSH20 0xFFFFFFFFFFFFFFFFFFFFFFFFFFFFFFFFFFFFFFFF AND PUSH20 0xFFFFFFFFFFFFFFFFFFFFFFFFFFFFFFFFFFFFFFFF AND DUP2 PUSH20 0xFFFFFFFFFFFFFFFFFFFFFFFFFFFFFFFFFFFFFFFF AND EQ PUSH2 0x1AF JUMPI PUSH1 0x40 MLOAD PUSH32 0x8C379A000000000000000000000000000000000000000000000000000000000 DUP2 MSTORE PUSH1 0x4 ADD PUSH2 0x1A6 SWAP1 PUSH2 0x98D JUMP JUMPDEST PUSH1 0x40 MLOAD DUP1 SWAP2 SUB SWAP1 REVERT JUMPDEST PUSH0 DUP7 PUSH1 0x40 MLOAD PUSH1 0x20 ADD PUSH2 0x1C1 SWAP2 SWAP1 PUSH2 0x9E5 JUMP JUMPDEST PUSH1 0x40 MLOAD PUSH1 0x20 DUP2 DUP4 SUB SUB DUP2 MSTORE SWAP1 PUSH1 0x40 MSTORE DUP1 MLOAD SWAP1 PUSH1 0x20 ADD KECCAK256 SWAP1 POP PUSH1 0x40 MLOAD DUP1 PUSH1 0x80 ADD PUSH1 0x40 MSTORE DUP1 DUP8 DUP2 MSTORE PUSH1 0x20 ADD DUP7 DUP2 MSTORE PUSH1 0x20 ADD DUP6 DUP2 MSTORE PUSH1 0x20 ADD DUP5 DUP2 MSTORE POP PUSH1 0x2 PUSH0 DUP4 DUP2 MSTORE PUSH1 0x20 ADD SWAP1 DUP2 MSTORE PUSH1 0x20 ADD PUSH0 KECCAK256 PUSH0 DUP3 ADD MLOAD DUP2 PUSH0 ADD SWAP1 DUP2 PUSH2 0x21E SWAP2 SWAP1 PUSH2 0xBFE JUMP JUMPDEST POP PUSH1 0x20 DUP3 ADD MLOAD DUP2 PUSH1 0x1 ADD SWAP1 DUP2 PUSH2 0x234 SWAP2 SWAP1 PUSH2 0xBFE JUMP JUMPDEST POP PUSH1 0x40 DUP3 ADD MLOAD DUP2 PUSH1 0x2 ADD SWAP1 DUP2 PUSH2 0x24A SWAP2 SWAP1 PUSH2 0xBFE JUMP JUMPDEST POP PUSH1 0x60 DUP3 ADD MLOAD DUP2 PUSH1 0x3 ADD SWAP1 DUP2 PUSH2 0x260 SWAP2 SWAP1 PUSH2 0xBFE JUMP JUMPDEST POP SWAP1 POP POP PUSH32 0xCD1C47AB5E06770329A1C29576A6FECFC87B195DFA8FDB8439D0A55E5EAE07C2 DUP7 DUP7 DUP7 DUP7 PUSH1 0x40 MLOAD PUSH2 0x299 SWAP5 SWAP4 SWAP3 SWAP2 SWAP1 PUSH2 0x8BE JUMP JUMPDEST PUSH1 0x40 MLOAD DUP1 SWAP2 SUB SWAP1 LOG1 POP POP POP POP POP POP POP JUMP JUMPDEST PUSH1 0x60 DUP1 PUSH1 0x60 DUP1 PUSH0 DUP6 PUSH1 0x40 MLOAD PUSH1 0x20 ADD PUSH2 0x2C2 SWAP2 SWAP1 PUSH2 0x9E5 JUMP JUMPDEST PUSH1 0x40 MLOAD PUSH1 0x20 DUP2 DUP4 SUB SUB DUP2 MSTORE SWAP1 PUSH1 0x40 MSTORE DUP1 MLOAD SWAP1 PUSH1 0x20 ADD KECCAK256 SWAP1 POP PUSH1 0x2 PUSH0 DUP3 DUP2 MSTORE PUSH1 0x20 ADD SWAP1 DUP2 MSTORE PUSH1 0x20 ADD PUSH0 KECCAK256 PUSH0 ADD DUP1 SLOAD PUSH2 0x2F8 SWAP1 PUSH2 0xA28 JUMP JUMPDEST DUP1 PUSH1 0x1F ADD PUSH1 0x20 DUP1 SWAP2 DIV MUL PUSH1 0x20 ADD PUSH1 0x40 MLOAD SWAP1 DUP2 ADD PUSH1 0x40 MSTORE DUP1 SWAP3 SWAP2 SWAP1 DUP2 DUP2 MSTORE PUSH1 0x20 ADD DUP3 DUP1 SLOAD PUSH2 0x324 SWAP1 PUSH2 0xA28 JUMP JUMPDEST DUP1 ISZERO PUSH2 0x36F JUMPI DUP1 PUSH1 0x1F LT PUSH2 0x346 JUMPI PUSH2 0x100 DUP1 DUP4 SLOAD DIV MUL DUP4 MSTORE SWAP2 PUSH1 0x20 ADD SWAP2 PUSH2 0x36F JUMP JUMPDEST DUP3 ADD SWAP2 SWAP1 PUSH0 MSTORE PUSH1 0x20 PUSH0 KECCAK256 SWAP1 JUMPDEST DUP2 SLOAD DUP2 MSTORE SWAP1 PUSH1 0x1 ADD SWAP1 PUSH1 0x20 ADD DUP1 DUP4 GT PUSH2 0x352 JUMPI DUP3 SWAP1 SUB PUSH1 0x1F AND DUP3 ADD SWAP2 JUMPDEST POP POP POP POP POP SWAP5 POP PUSH1 0x2 PUSH0 DUP3 DUP2 MSTORE PUSH1 0x20 ADD SWAP1 DUP2 MSTORE PUSH1 0x20 ADD PUSH0 KECCAK256 PUSH1 0x1 ADD DUP1 SLOAD PUSH2 0x395 SWAP1 PUSH2 0xA28 JUMP JUMPDEST DUP1 PUSH1 0x1F ADD PUSH1 0x20 DUP1 SWAP2 DIV MUL PUSH1 0x20 ADD PUSH1 0x40 MLOAD SWAP1 DUP2 ADD PUSH1 0x40 MSTORE DUP1 SWAP3 SWAP2 SWAP1 DUP2 DUP2 MSTORE PUSH1 0x20 ADD DUP3 DUP1 SLOAD PUSH2 0x3C1 SWAP1 PUSH2 0xA28 JUMP JUMPDEST DUP1 ISZERO PUSH2 0x40C JUMPI DUP1 PUSH1 0x1F LT PUSH2 0x3E3 JUMPI PUSH2 0x100 DUP1 DUP4 SLOAD DIV MUL DUP4 MSTORE SWAP2 PUSH1 0x20 ADD SWAP2 PUSH2 0x40C JUMP JUMPDEST DUP3 ADD SWAP2 SWAP1 PUSH0 MSTORE PUSH1 0x20 PUSH0 KECCAK256 SWAP1 JUMPDEST DUP2 SLOAD DUP2 MSTORE SWAP1 PUSH1 0x1 ADD SWAP1 PUSH1 0x20 ADD DUP1 DUP4 GT PUSH2 0x3EF JUMPI DUP3 SWAP1 SUB PUSH1 0x1F AND DUP3 ADD SWAP2 JUMPDEST POP POP POP POP POP SWAP4 POP PUSH1 0x2 PUSH0 DUP3 DUP2 MSTORE PUSH1 0x20 ADD SWAP1 DUP2 MSTORE PUSH1 0x20 ADD PUSH0 KECCAK256 PUSH1 0x2 ADD DUP1 SLOAD PUSH2 0x432 SWAP1 PUSH2 0xA28 JUMP JUMPDEST DUP1 PUSH1 0x1F ADD PUSH1 0x20 DUP1 SWAP2 DIV MUL PUSH1 0x20 ADD PUSH1 0x40 MLOAD SWAP1 DUP2 ADD PUSH1 0x40 MSTORE DUP1 SWAP3 SWAP2 SWAP1 DUP2 DUP2 MSTORE PUSH1 0x20 ADD DUP3 DUP1 SLOAD PUSH2 0x45E SWAP1 PUSH2 0xA28 JUMP JUMPDEST DUP1 ISZERO PUSH2 0x4A9 JUMPI DUP1 PUSH1 0x1F LT PUSH2 0x480 JUMPI PUSH2 0x100 DUP1 DUP4 SLOAD DIV MUL DUP4 MSTORE SWAP2 PUSH1 0x20 ADD SWAP2 PUSH2 0x4A9 JUMP JUMPDEST DUP3 ADD SWAP2 SWAP1 PUSH0 MSTORE PUSH1 0x20 PUSH0 KECCAK256 SWAP1 JUMPDEST DUP2 SLOAD DUP2 MSTORE SWAP1 PUSH1 0x1 ADD SWAP1 PUSH1 0x20 ADD DUP1 DUP4 GT PUSH2 0x48C JUMPI DUP3 SWAP1 SUB PUSH1 0x1F AND DUP3 ADD SWAP2 JUMPDEST POP POP POP POP POP SWAP3 POP PUSH1 0x2 PUSH0 DUP3 DUP2 MSTORE PUSH1 0x20 ADD SWAP1 DUP2 MSTORE PUSH1 0x20 ADD PUSH0 KECCAK256 PUSH1 0x3 ADD DUP1 SLOAD PUSH2 0x4CF SWAP1 PUSH2 0xA28 JUMP JUMPDEST DUP1 PUSH1 0x1F ADD PUSH1 0x20 DUP1 SWAP2 DIV MUL PUSH1 0x20 ADD PUSH1 0x40 MLOAD SWAP1 DUP2 ADD PUSH1 0x40 MSTORE DUP1 SWAP3 SWAP2 SWAP1 DUP2 DUP2 MSTORE PUSH1 0x20 ADD DUP3 DUP1 SLOAD PUSH2 0x4FB SWAP1 PUSH2 0xA28 JUMP JUMPDEST DUP1 ISZERO PUSH2 0x546 JUMPI DUP1 PUSH1 0x1F LT PUSH2 0x51D JUMPI PUSH2 0x100 DUP1 DUP4 SLOAD DIV MUL DUP4 MSTORE SWAP2 PUSH1 0x20 ADD SWAP2 PUSH2 0x546 JUMP JUMPDEST DUP3 ADD SWAP2 SWAP1 PUSH0 MSTORE PUSH1 0x20 PUSH0 KECCAK256 SWAP1 JUMPDEST DUP2 SLOAD DUP2 MSTORE SWAP1 PUSH1 0x1 ADD SWAP1 PUSH1 0x20 ADD DUP1 DUP4 GT PUSH2 0x529 JUMPI DUP3 SWAP1 SUB PUSH1 0x1F AND DUP3 ADD SWAP2 JUMPDEST POP POP POP POP POP SWAP2 POP POP SWAP2 SWAP4 POP SWAP2 SWAP4 JUMP JUMPDEST PUSH0 PUSH20 0xFFFFFFFFFFFFFFFFFFFFFFFFFFFFFFFFFFFFFFFF DUP3 AND SWAP1 POP SWAP2 SWAP1 POP JUMP JUMPDEST PUSH0 PUSH2 0x57E DUP3 PUSH2 0x555 JUMP JUMPDEST SWAP1 POP SWAP2 SWAP1 POP JUMP JUMPDEST PUSH2 0x58E DUP2 PUSH2 0x574 JUMP JUMPDEST DUP3 MSTORE POP POP JUMP JUMPDEST PUSH0 PUSH1 0x20 DUP3 ADD SWAP1 POP PUSH2 0x5A7 PUSH0 DUP4 ADD DUP5 PUSH2 0x585 JUMP JUMPDEST SWAP3 SWAP2 POP POP JUMP JUMPDEST PUSH0 PUSH1 0x40 MLOAD SWAP1 POP SWAP1 JUMP JUMPDEST PUSH0 DUP1 REVERT JUMPDEST PUSH0 DUP1 REVERT JUMPDEST PUSH0 DUP1 REVERT JUMPDEST PUSH0 DUP1 REVERT JUMPDEST PUSH0 PUSH1 0x1F NOT PUSH1 0x1F DUP4 ADD AND SWAP1 POP SWAP2 SWAP1 POP JUMP JUMPDEST PUSH32 0x4E487B7100000000000000000000000000000000000000000000000000000000 PUSH0 MSTORE PUSH1 0x41 PUSH1 0x4 MSTORE PUSH1 0x24 PUSH0 REVERT JUMPDEST PUSH2 0x60C DUP3 PUSH2 0x5C6 JUMP JUMPDEST DUP2 ADD DUP2 DUP2 LT PUSH8 0xFFFFFFFFFFFFFFFF DUP3 GT OR ISZERO PUSH2 0x62B JUMPI PUSH2 0x62A PUSH2 0x5D6 JUMP JUMPDEST JUMPDEST DUP1 PUSH1 0x40 MSTORE POP POP POP JUMP JUMPDEST PUSH0 PUSH2 0x63D PUSH2 0x5AD JUMP JUMPDEST SWAP1 POP PUSH2 0x649 DUP3 DUP3 PUSH2 0x603 JUMP JUMPDEST SWAP2 SWAP1 POP JUMP JUMPDEST PUSH0 PUSH8 0xFFFFFFFFFFFFFFFF DUP3 GT ISZERO PUSH2 0x668 JUMPI PUSH2 0x667 PUSH2 0x5D6 JUMP JUMPDEST JUMPDEST PUSH2 0x671 DUP3 PUSH2 0x5C6 JUMP JUMPDEST SWAP1 POP PUSH1 0x20 DUP2 ADD SWAP1 POP SWAP2 SWAP1 POP JUMP JUMPDEST DUP3 DUP2 DUP4 CALLDATACOPY PUSH0 DUP4 DUP4 ADD MSTORE POP POP POP JUMP JUMPDEST PUSH0 PUSH2 0x69E PUSH2 0x699 DUP5 PUSH2 0x64E JUMP JUMPDEST PUSH2 0x634 JUMP JUMPDEST SWAP1 POP DUP3 DUP2 MSTORE PUSH1 0x20 DUP2 ADD DUP5 DUP5 DUP5 ADD GT ISZERO PUSH2 0x6BA JUMPI PUSH2 0x6B9 PUSH2 0x5C2 JUMP JUMPDEST JUMPDEST PUSH2 0x6C5 DUP5 DUP3 DUP6 PUSH2 0x67E JUMP JUMPDEST POP SWAP4 SWAP3 POP POP POP JUMP JUMPDEST PUSH0 DUP3 PUSH1 0x1F DUP4 ADD SLT PUSH2 0x6E1 JUMPI PUSH2 0x6E0 PUSH2 0x5BE JUMP JUMPDEST JUMPDEST DUP2 CALLDATALOAD PUSH2 0x6F1 DUP5 DUP3 PUSH1 0x20 DUP7 ADD PUSH2 0x68C JUMP JUMPDEST SWAP2 POP POP SWAP3 SWAP2 POP POP JUMP JUMPDEST PUSH0 DUP1 PUSH0 DUP1 PUSH0 PUSH1 0xA0 DUP7 DUP9 SUB SLT ISZERO PUSH2 0x713 JUMPI PUSH2 0x712 PUSH2 0x5B6 JUMP JUMPDEST JUMPDEST PUSH0 DUP7 ADD CALLDATALOAD PUSH8 0xFFFFFFFFFFFFFFFF DUP2 GT ISZERO PUSH2 0x730 JUMPI PUSH2 0x72F PUSH2 0x5BA JUMP JUMPDEST JUMPDEST PUSH2 0x73C DUP9 DUP3 DUP10 ADD PUSH2 0x6CD JUMP JUMPDEST SWAP6 POP POP PUSH1 0x20 DUP7 ADD CALLDATALOAD PUSH8 0xFFFFFFFFFFFFFFFF DUP2 GT ISZERO PUSH2 0x75D JUMPI PUSH2 0x75C PUSH2 0x5BA JUMP JUMPDEST JUMPDEST PUSH2 0x769 DUP9 DUP3 DUP10 ADD PUSH2 0x6CD JUMP JUMPDEST SWAP5 POP POP PUSH1 0x40 DUP7 ADD CALLDATALOAD PUSH8 0xFFFFFFFFFFFFFFFF DUP2 GT ISZERO PUSH2 0x78A JUMPI PUSH2 0x789 PUSH2 0x5BA JUMP JUMPDEST JUMPDEST PUSH2 0x796 DUP9 DUP3 DUP10 ADD PUSH2 0x6CD JUMP JUMPDEST SWAP4 POP POP PUSH1 0x60 DUP7 ADD CALLDATALOAD PUSH8 0xFFFFFFFFFFFFFFFF DUP2 GT ISZERO PUSH2 0x7B7 JUMPI PUSH2 0x7B6 PUSH2 0x5BA JUMP JUMPDEST JUMPDEST PUSH2 0x7C3 DUP9 DUP3 DUP10 ADD PUSH2 0x6CD JUMP JUMPDEST SWAP3 POP POP PUSH1 0x80 DUP7 ADD CALLDATALOAD PUSH8 0xFFFFFFFFFFFFFFFF DUP2 GT ISZERO PUSH2 0x7E4 JUMPI PUSH2 0x7E3 PUSH2 0x5BA JUMP JUMPDEST JUMPDEST PUSH2 0x7F0 DUP9 DUP3 DUP10 ADD PUSH2 0x6CD JUMP JUMPDEST SWAP2 POP POP SWAP3 SWAP6 POP SWAP3 SWAP6 SWAP1 SWAP4 POP JUMP JUMPDEST PUSH0 PUSH1 0x20 DUP3 DUP5 SUB SLT ISZERO PUSH2 0x812 JUMPI PUSH2 0x811 PUSH2 0x5B6 JUMP JUMPDEST JUMPDEST PUSH0 DUP3 ADD CALLDATALOAD PUSH8 0xFFFFFFFFFFFFFFFF DUP2 GT ISZERO PUSH2 0x82F JUMPI PUSH2 0x82E PUSH2 0x5BA JUMP JUMPDEST JUMPDEST PUSH2 0x83B DUP5 DUP3 DUP6 ADD PUSH2 0x6CD JUMP JUMPDEST SWAP2 POP POP SWAP3 SWAP2 POP POP JUMP JUMPDEST PUSH0 DUP2 MLOAD SWAP1 POP SWAP2 SWAP1 POP JUMP JUMPDEST PUSH0 DUP3 DUP3 MSTORE PUSH1 0x20 DUP3 ADD SWAP1 POP SWAP3 SWAP2 POP POP JUMP JUMPDEST PUSH0 JUMPDEST DUP4 DUP2 LT ISZERO PUSH2 0x87B JUMPI DUP1 DUP3 ADD MLOAD DUP2 DUP5 ADD MSTORE PUSH1 0x20 DUP2 ADD SWAP1 POP PUSH2 0x860 JUMP JUMPDEST PUSH0 DUP5 DUP5 ADD MSTORE POP POP POP POP JUMP JUMPDEST PUSH0 PUSH2 0x890 DUP3 PUSH2 0x844 JUMP JUMPDEST PUSH2 0x89A DUP2 DUP6 PUSH2 0x84E JUMP JUMPDEST SWAP4 POP PUSH2 0x8AA DUP2 DUP6 PUSH1 0x20 DUP7 ADD PUSH2 0x85E JUMP JUMPDEST PUSH2 0x8B3 DUP2 PUSH2 0x5C6 JUMP JUMPDEST DUP5 ADD SWAP2 POP POP SWAP3 SWAP2 POP POP JUMP JUMPDEST PUSH0 PUSH1 0x80 DUP3 ADD SWAP1 POP DUP2 DUP2 SUB PUSH0 DUP4 ADD MSTORE PUSH2 0x8D6 DUP2 DUP8 PUSH2 0x886 JUMP JUMPDEST SWAP1 POP DUP2 DUP2 SUB PUSH1 0x20 DUP4 ADD MSTORE PUSH2 0x8EA DUP2 DUP7 PUSH2 0x886 JUMP JUMPDEST SWAP1 POP DUP2 DUP2 SUB PUSH1 0x40 DUP4 ADD MSTORE PUSH2 0x8FE DUP2 DUP6 PUSH2 0x886 JUMP JUMPDEST SWAP1 POP DUP2 DUP2 SUB PUSH1 0x60 DUP4 ADD MSTORE PUSH2 0x912 DUP2 DUP5 PUSH2 0x886 JUMP JUMPDEST SWAP1 POP SWAP6 SWAP5 POP POP POP POP POP JUMP JUMPDEST PUSH32 0x4E6F207469656E65207065726D69736F73207061726120656A65637574617220 PUSH0 DUP3 ADD MSTORE PUSH32 0x657374612066756E63696F6E2E00000000000000000000000000000000000000 PUSH1 0x20 DUP3 ADD MSTORE POP JUMP JUMPDEST PUSH0 PUSH2 0x977 PUSH1 0x2D DUP4 PUSH2 0x84E JUMP JUMPDEST SWAP2 POP PUSH2 0x982 DUP3 PUSH2 0x91D JUMP JUMPDEST PUSH1 0x40 DUP3 ADD SWAP1 POP SWAP2 SWAP1 POP JUMP JUMPDEST PUSH0 PUSH1 0x20 DUP3 ADD SWAP1 POP DUP2 DUP2 SUB PUSH0 DUP4 ADD MSTORE PUSH2 0x9A4 DUP2 PUSH2 0x96B JUMP JUMPDEST SWAP1 POP SWAP2 SWAP1 POP JUMP JUMPDEST PUSH0 DUP2 SWAP1 POP SWAP3 SWAP2 POP POP JUMP JUMPDEST PUSH0 PUSH2 0x9BF DUP3 PUSH2 0x844 JUMP JUMPDEST PUSH2 0x9C9 DUP2 DUP6 PUSH2 0x9AB JUMP JUMPDEST SWAP4 POP PUSH2 0x9D9 DUP2 DUP6 PUSH1 0x20 DUP7 ADD PUSH2 0x85E JUMP JUMPDEST DUP1 DUP5 ADD SWAP2 POP POP SWAP3 SWAP2 POP POP JUMP JUMPDEST PUSH0 PUSH2 0x9F0 DUP3 DUP5 PUSH2 0x9B5 JUMP JUMPDEST SWAP2 POP DUP2 SWAP1 POP SWAP3 SWAP2 POP POP JUMP JUMPDEST PUSH32 0x4E487B7100000000000000000000000000000000000000000000000000000000 PUSH0 MSTORE PUSH1 0x22 PUSH1 0x4 MSTORE PUSH1 0x24 PUSH0 REVERT JUMPDEST PUSH0 PUSH1 0x2 DUP3 DIV SWAP1 POP PUSH1 0x1 DUP3 AND DUP1 PUSH2 0xA3F JUMPI PUSH1 0x7F DUP3 AND SWAP2 POP JUMPDEST PUSH1 0x20 DUP3 LT DUP2 SUB PUSH2 0xA52 JUMPI PUSH2 0xA51 PUSH2 0x9FB JUMP JUMPDEST JUMPDEST POP SWAP2 SWAP1 POP JUMP JUMPDEST PUSH0 DUP2 SWAP1 POP DUP2 PUSH0 MSTORE PUSH1 0x20 PUSH0 KECCAK256 SWAP1 POP SWAP2 SWAP1 POP JUMP JUMPDEST PUSH0 PUSH1 0x20 PUSH1 0x1F DUP4 ADD DIV SWAP1 POP SWAP2 SWAP1 POP JUMP JUMPDEST PUSH0 DUP3 DUP3 SHL SWAP1 POP SWAP3 SWAP2 POP POP JUMP JUMPDEST PUSH0 PUSH1 0x8 DUP4 MUL PUSH2 0xAB4 PUSH32 0xFFFFFFFFFFFFFFFFFFFFFFFFFFFFFFFFFFFFFFFFFFFFFFFFFFFFFFFFFFFFFFFF DUP3 PUSH2 0xA79 JUMP JUMPDEST PUSH2 0xABE DUP7 DUP4 PUSH2 0xA79 JUMP JUMPDEST SWAP6 POP DUP1 NOT DUP5 AND SWAP4 POP DUP1 DUP7 AND DUP5 OR SWAP3 POP POP POP SWAP4 SWAP3 POP POP POP JUMP JUMPDEST PUSH0 DUP2 SWAP1 POP SWAP2 SWAP1 POP JUMP JUMPDEST PUSH0 DUP2 SWAP1 POP SWAP2 SWAP1 POP JUMP JUMPDEST PUSH0 PUSH2 0xB02 PUSH2 0xAFD PUSH2 0xAF8 DUP5 PUSH2 0xAD6 JUMP JUMPDEST PUSH2 0xADF JUMP JUMPDEST PUSH2 0xAD6 JUMP JUMPDEST SWAP1 POP SWAP2 SWAP1 POP JUMP JUMPDEST PUSH0 DUP2 SWAP1 POP SWAP2 SWAP1 POP JUMP JUMPDEST PUSH2 0xB1B DUP4 PUSH2 0xAE8 JUMP JUMPDEST PUSH2 0xB2F PUSH2 0xB27 DUP3 PUSH2 0xB09 JUMP JUMPDEST DUP5 DUP5 SLOAD PUSH2 0xA85 JUMP JUMPDEST DUP3 SSTORE POP POP POP POP JUMP JUMPDEST PUSH0 SWAP1 JUMP JUMPDEST PUSH2 0xB43 PUSH2 0xB37 JUMP JUMPDEST PUSH2 0xB4E DUP2 DUP5 DUP5 PUSH2 0xB12 JUMP JUMPDEST POP POP POP JUMP JUMPDEST JUMPDEST DUP2 DUP2 LT ISZERO PUSH2 0xB71 JUMPI PUSH2 0xB66 PUSH0 DUP3 PUSH2 0xB3B JUMP JUMPDEST PUSH1 0x1 DUP2 ADD SWAP1 POP PUSH2 0xB54 JUMP JUMPDEST POP POP JUMP JUMPDEST PUSH1 0x1F DUP3 GT ISZERO PUSH2 0xBB6 JUMPI PUSH2 0xB87 DUP2 PUSH2 0xA58 JUMP JUMPDEST PUSH2 0xB90 DUP5 PUSH2 0xA6A JUMP JUMPDEST DUP2 ADD PUSH1 0x20 DUP6 LT ISZERO PUSH2 0xB9F JUMPI DUP2 SWAP1 POP JUMPDEST PUSH2 0xBB3 PUSH2 0xBAB DUP6 PUSH2 0xA6A JUMP JUMPDEST DUP4 ADD DUP3 PUSH2 0xB53 JUMP JUMPDEST POP POP JUMPDEST POP POP POP JUMP JUMPDEST PUSH0 DUP3 DUP3 SHR SWAP1 POP SWAP3 SWAP2 POP POP JUMP JUMPDEST PUSH0 PUSH2 0xBD6 PUSH0 NOT DUP5 PUSH1 0x8 MUL PUSH2 0xBBB JUMP JUMPDEST NOT DUP1 DUP4 AND SWAP2 POP POP SWAP3 SWAP2 POP POP JUMP JUMPDEST PUSH0 PUSH2 0xBEE DUP4 DUP4 PUSH2 0xBC7 JUMP JUMPDEST SWAP2 POP DUP3 PUSH1 0x2 MUL DUP3 OR SWAP1 POP SWAP3 SWAP2 POP POP JUMP JUMPDEST PUSH2 0xC07 DUP3 PUSH2 0x844 JUMP JUMPDEST PUSH8 0xFFFFFFFFFFFFFFFF DUP2 GT ISZERO PUSH2 0xC20 JUMPI PUSH2 0xC1F PUSH2 0x5D6 JUMP JUMPDEST JUMPDEST PUSH2 0xC2A DUP3 SLOAD PUSH2 0xA28 JUMP JUMPDEST PUSH2 0xC35 DUP3 DUP3 DUP6 PUSH2 0xB75 JUMP JUMPDEST PUSH0 PUSH1 0x20 SWAP1 POP PUSH1 0x1F DUP4 GT PUSH1 0x1 DUP2 EQ PUSH2 0xC66 JUMPI PUSH0 DUP5 ISZERO PUSH2 0xC54 JUMPI DUP3 DUP8 ADD MLOAD SWAP1 POP JUMPDEST PUSH2 0xC5E DUP6 DUP3 PUSH2 0xBE3 JUMP JUMPDEST DUP7 SSTORE POP PUSH2 0xCC5 JUMP JUMPDEST PUSH1 0x1F NOT DUP5 AND PUSH2 0xC74 DUP7 PUSH2 0xA58 JUMP JUMPDEST PUSH0 JUMPDEST DUP3 DUP2 LT ISZERO PUSH2 0xC9B JUMPI DUP5 DUP10 ADD MLOAD DUP3 SSTORE PUSH1 0x1 DUP3 ADD SWAP2 POP PUSH1 0x20 DUP6 ADD SWAP5 POP PUSH1 0x20 DUP2 ADD SWAP1 POP PUSH2 0xC76 JUMP JUMPDEST DUP7 DUP4 LT ISZERO PUSH2 0xCB8 JUMPI DUP5 DUP10 ADD MLOAD PUSH2 0xCB4 PUSH1 0x1F DUP10 AND DUP3 PUSH2 0xBC7 JUMP JUMPDEST DUP4 SSTORE POP JUMPDEST PUSH1 0x1 PUSH1 0x2 DUP9 MUL ADD DUP9 SSTORE POP POP POP JUMPDEST POP POP POP POP POP POP JUMP INVALID LOG2 PUSH5 0x6970667358 0x22 SLT KECCAK256 PUSH19 0x65AE357A07550DE30B727F087F2D471387BFC3 PUSH8 0x6535D89FEFD12658 DUP10 TIMESTAMP 0x2D PUSH5 0x736F6C6343 STOP ADDMOD EQ STOP CALLER "
				},
				"gasEstimates": {
					"creation": {
						"codeDepositCost": "666200",
						"executionCost": "infinite",
						"totalCost": "infinite"
					},
					"external": {
						"DireccionContrato()": "2508",
						"DireccionEmpresa()": "2483",
						"ResultadosProductoAgricola(string,string,string,string,string)": "infinite",
						"VisualizarResultados(string)": "infinite"
					}
				},
				"methodIdentifiers": {
					"DireccionContrato()": "630ea6e2",
					"DireccionEmpresa()": "5bb7ac1a",
					"ResultadosProductoAgricola(string,string,string,string,string)": "d02cb4ed",
					"VisualizarResultados(string)": "dad6ebeb"
				}
			},
			"storageLayout": {
				"storage": [
					{
						"astId": 197,
						"contract": "trazabilidad/trazabilidad.sol:Produccion",
						"label": "DireccionEmpresa",
						"offset": 0,
						"slot": "0",
						"type": "t_address"
					},
					{
						"astId": 199,
						"contract": "trazabilidad/trazabilidad.sol:Produccion",
						"label": "DireccionContrato",
						"offset": 0,
						"slot": "1",
						"type": "t_address"
					},
					{
						"astId": 221,
						"contract": "trazabilidad/trazabilidad.sol:Produccion",
						"label": "ResultadosProdAgricola",
						"offset": 0,
						"slot": "2",
						"type": "t_mapping(t_bytes32,t_struct(ProductoAgricola)230_storage)"
					}
				],
				"types": {
					"t_address": {
						"encoding": "inplace",
						"label": "address",
						"numberOfBytes": "20"
					},
					"t_bytes32": {
						"encoding": "inplace",
						"label": "bytes32",
						"numberOfBytes": "32"
					},
					"t_mapping(t_bytes32,t_struct(ProductoAgricola)230_storage)": {
						"encoding": "mapping",
						"key": "t_bytes32",
						"label": "mapping(bytes32 => struct Produccion.ProductoAgricola)",
						"numberOfBytes": "32",
						"value": "t_struct(ProductoAgricola)230_storage"
					},
					"t_string_storage": {
						"encoding": "bytes",
						"label": "string",
						"numberOfBytes": "32"
					},
					"t_struct(ProductoAgricola)230_storage": {
						"encoding": "inplace",
						"label": "struct Produccion.ProductoAgricola",
						"members": [
							{
								"astId": 223,
								"contract": "trazabilidad/trazabilidad.sol:Produccion",
								"label": "origenSemillas",
								"offset": 0,
								"slot": "0",
								"type": "t_string_storage"
							},
							{
								"astId": 225,
								"contract": "trazabilidad/trazabilidad.sol:Produccion",
								"label": "entornoCrecimiento",
								"offset": 0,
								"slot": "1",
								"type": "t_string_storage"
							},
							{
								"astId": 227,
								"contract": "trazabilidad/trazabilidad.sol:Produccion",
								"label": "procesoSiembra",
								"offset": 0,
								"slot": "2",
								"type": "t_string_storage"
							},
							{
								"astId": 229,
								"contract": "trazabilidad/trazabilidad.sol:Produccion",
								"label": "CodigoIPFS",
								"offset": 0,
								"slot": "3",
								"type": "t_string_storage"
							}
						],
						"numberOfBytes": "128"
					}
				}
			},
			"userdoc": {
				"kind": "user",
				"methods": {},
				"version": 1
			}
		}
	}
}